:1000000015C10000ABC600007EC6000051C600004E
:1000100024C60000F7C50000CAC500009DC5000049
:1000200070C5000034C1000032C1000030C10000C2
:100030002EC100002CC100002AC1000028C1000010
:1000400026C1000024C1000022C1000020C1000020
:100050001EC100001CC100001AC1000008C500003C
:1000600016C100003FC4000014C4000010C100000D
:100070000EC100000CC100000AC1000008C1000050
:1000800006C1000004C1000002C1000000C1000060
:10009000FEC00000FCC00000FAC000008AC60000DC
:1000A000F6C00000F4C00000F2C00000F0C0000084
:1000B000EEC00000ECC00000EAC00000E8C0000094
:1000C000E6C00000E4C00000E2C00000E0C00000A4
:1000D000DEC00000DCC00000DAC00000D8C00000B4
:1000E000D6C000009402970286028A029002CE02D5
:1000F0009B029F02A502A902AD02B302B702BB0296
:10010000CE02C102C502C90200002100240027005E
:100110002A002D0030003300010100000401070116
:100120000A0100002200250028002B002E003100CB
:10013000340002010000050108010B01000020004D
:100140002300260029002C002F00320000010000AF
:10015000030106010901050505050705080808084A
:10016000020202020A0A080804040404010101014F
:10017000010101010303030303030303040707074A
:100180000C0C0C0C0C0C0C0C0202020206060606EF
:10019000060606060B0B0B0B0B0B0B0B01021020BC
:1001A00020080810204010204080020102010804AD
:1001B0000201010204081020408080402010080441
:1001C000020180040201804020100804020108049A
:1001D00002010102040810204080010204081020DE
:1001E000408000000A0B02090C0D0E0807030401F1
:1001F00000000000000000000000000000000000FF
:1002000000000000000000000000000000001211CB
:1002100010000000000000000000000000000000CE
:100220000000000000000000460C370C11241FBE27
:10023000CFEFD1E2DEBFCDBF00E00CBF14E0A0E005
:10024000B2E0E6E2F2E200E00BBF02C007900D92DE
:10025000AA3DB107D9F726E0AAEDB4E001C01D928E
:10026000AB32B207E1F711E0C5E1D1E000E006C032
:1002700021970109802FFE010E94BB0EC431D107D6
:1002800080E00807A9F70E94FE0A0C940211B8CE7C
:10029000CF92DF92EF92FF920F931F93CF93DF9352
:1002A0006C017A018B01C0E0D0E0CE15DF0589F04A
:1002B000D8016D918D01D601ED91FC910190F081F5
:1002C000E02DC6011995892B11F47E0102C02196FB
:1002D000ECCFC701DF91CF911F910F91FF90EF906D
:1002E000DF90CF900895FC01538D448D252F30E091
:1002F000842F90E0821B930B541710F0CF96089533
:1003000001970895FC01918D828D981761F0828D7F
:10031000DF01A80FB11D5D968C91928D9F5F9F7339
:10032000928F90E008958FEF9FEF0895FC01918DDB
:10033000828D981731F0828DE80FF11D858D90E048
:1003400008958FEF9FEF0895FC01918D228D892FE5
:1003500090E0805C9F4F821B91098F7399270895CD
:1003600089E595E0F1DF21E0892B09F420E0822F77
:100370000895FC01848DDF01A80FB11DA35ABF4F62
:100380002C91848D90E001968F739927848FA68994
:10039000B7892C93A089B1898C9180648C93938DBB
:1003A000848D981306C00288F389E02D80818F7DAB
:1003B00080830895EF92FF920F931F93CF93DF9363
:1003C000EC0181E0888F9B8D8C8D981305C0E889A6
:1003D000F989808185FD23C0F62E0B8D10E00F5F1B
:1003E0001F4F0F731127E02E8C8DE8120BC00FB634
:1003F00007FCFACFE889F989808185FFF5CFCE0126
:10040000B8DFF2CF8B8DFE01E80FF11DE35AFF4FED
:10041000F0820B8FEA89FB898081806207C0EE89B8
:10042000FF896083E889F98980818064808381E025
:1004300090E0DF91CF911F910F91FF90EF90089581
:10044000CF93DF93EC01888D8823C1F0EA89FB8983
:10045000808185FD05C0A889B9898C9186FD0EC073
:100460000FB607FCF5CF808185FFF2CFA889B98947
:100470008C9185FFEDCFCE017CDFE8CFDF91CF916E
:10048000089580E090E0892B19F06ADF811125C082
:1004900080E090E0892B41F080E090E0892B21F012
:1004A0000E94000081111CC080E090E0892B41F087
:1004B00080E090E0892B21F00E940000811113C0A0
:1004C00080E090E0892BA1F080E090E0892B81F022
:1004D0000E94000081110AC008950E940000D8CF38
:1004E0000E940000E1CF0E940000EACF0C940000BF
:1004F000089590E0FC013197E231F10508F04EC01B
:100500008827EE58FF4F8F4F0C94BB0E80918000D0
:100510008F7703C0809180008F7D80938000089545
:1005200080918000877FF9CF84B58F7702C084B532
:100530008F7D84BD08958091B0008F7703C0809136
:10054000B0008F7D8093B0000895809190008F77E8
:1005500007C0809190008F7D03C080919000877FBD
:100560008093900008958091A0008F7707C08091BC
:10057000A0008F7D03C08091A000877F8093A000A2
:100580000895809120018F7707C0809120018F7D91
:1005900003C080912001877F809320010895CF932D
:1005A000DF9390E0FC01E456FE4F2491FC01EA5AEF
:1005B000FE4F8491882361F190E0880F991FFC0120
:1005C000E85FFE4FC591D491FC01EE5DFE4FA59111
:1005D000B491611109C09FB7F89488812095822356
:1005E0008883EC912E230BC0623061F49FB7F8949E
:1005F0003881822F809583238883EC912E2B2C9336
:100600009FBF06C08FB7F894E8812E2B28838FBF39
:10061000DF91CF9108953FB7F89480914E05909166
:100620004F05A0915005B091510526B5A89B05C076
:100630002F3F19F00196A11DB11D3FBFBA2FA92F61
:10064000982F8827820F911DA11DB11DBC01CD01DE
:1006500042E0660F771F881F991F4A95D1F70895CA
:10066000089585ED8093BC008091BC0084FDFCCF93
:100670001092230508954091FD04262F30E0240FA9
:10068000311D21323105DCF4209123052430C9F4D9
:10069000FC0180E090E0861758F43091FD04219130
:1006A000DC01A552BB4FA30FB11D2C930196F3CFD4
:1006B0008091FD04680F6093FD0480E0089581E05F
:1006C000089582E0089508958FEF9FEF08958FEFCA
:1006D0009FEF08958091DA0490E0919581959109BA
:1006E0000895CF93DF931F921F92CDB7DEB7CB0152
:1006F000642F49835A83BFDF4981842F5A81952F04
:100700000F900F90DF91CF910895CF93DF931F92B9
:10071000CDB7DEB7698361E0CE010196ACDF81E041
:1007200090E00F90DF91CF910895089580E090E0E0
:100730000895E2E5F5E0108211821282138214829C
:1007400015821682089582E594E038D6F2DF81E0C2
:1007500080935205089585E694E030D6EADF81E083
:1007600080935305089589E694E028D6E2DF81E07E
:100770008093540508958CE694E020D6DADF81E07A
:100780008093550508958FE694E018D6D2DF81E076
:1007900080935605089582E794E010D6CADF81E081
:1007A0008093570508950E94EE10EF92FF920F93E9
:1007B0001F93CF93DF93EC017B018A01888199819C
:1007C000009729F02A813B8124173507F8F4B801F6
:1007D0006F5F7F4F0E940A10009759F099838883BA
:1007E0001B830A832C813D81232B81F4FC01108221
:1007F0000DC088819981009711F00E94720F1982B3
:1008000018821D821C821B821A8207C01D830C83E2
:10081000B701888199810E94FB10CE01DF91CF91B1
:100820001F910F91FF90EF900895CF93DF93EC010C
:10083000FB0186179707A9F0608171816115710529
:1008400021F044815581B1DF0CC0888199810097E6
:1008500011F00E94720F198218821D821C821B8265
:100860001A82CE01DF91CF910895FC01118210828E
:1008700013821282158214826115710549F0FB0101
:1008800001900020E9F73197AF01461B570B8DCF40
:1008900008951F920F920FB60F9211240BB60F926C
:1008A0002F933F934F935F936F937F938F939F9378
:1008B000AF93BF93EF93FF9389E595E05ADDFF91E6
:1008C000EF91BF91AF919F918F917F916F915F91C8
:1008D0004F913F912F910F900BBE0F900FBE0F9035
:1008E0001F9018951F920F920FB60F9211240BB6FE
:1008F0000F922F938F939F93EF93FF93E09169054E
:10090000F0916A058081E0916F05F091700582FD9C
:1009100012C09081809172058F5F8F732091730553
:10092000821751F0E0917205F0E0E75AFA4F958F87
:100930008093720501C08081FF91EF919F918F910B
:100940002F910F900BBE0F900FBE0F901F90189518
:10095000CF93DF93282F30E0F901EE51FE4F8491C1
:10096000F901E456FE4FD491F901EA5AFE4FC491C1
:10097000CC2389F08111BDDDEC2FF0E0EE0FFF1FDD
:10098000E45CFE4FA591B491EC91ED2381E090E001
:1009900021F480E002C080E090E0DF91CF910895E3
:1009A0001F93CF93DF93282F30E0F901EE51FE4FD4
:1009B0008491F901E456FE4FD491F901EA5AFE4FB1
:1009C000C491CC23C1F0162F811193DDEC2FF0E000
:1009D000EE0FFF1FEE5DFE4FA591B4918FB7F89417
:1009E000111105C09C91ED2FE095E92302C0EC9117
:1009F000ED2BEC938FBFDF91CF911F9108958F92D4
:100A00009F92AF92BF92CF92DF92EF92FF926B01D3
:100A10007C0101DE4B015C01C114D104E104F1044D
:100A2000E9F0F9DDDC01CB0188199909AA09BB09B4
:100A3000883E9340A105B10578F321E0C21AD108A0
:100A4000E108F10888EE880E83E0981EA11CB11C15
:100A5000C114D104E104F10421F7DECFFF90EF903F
:100A6000DF90CF90BF90AF909F908F9008951F928E
:100A70000F920FB60F9211242F933F938F939F9352
:100A8000AF93BF9380914A0590914B05A0914C057F
:100A9000B0914D053091490523E0230F2D3720F407
:100AA0000196A11DB11D05C026E8230F0296A11DC8
:100AB000B11D2093490580934A0590934B05A0935F
:100AC0004C05B0934D0580914E0590914F05A09136
:100AD0005005B09151050196A11DB11D80934E05A1
:100AE00090934F05A0935005B0935105BF91AF91DE
:100AF0009F918F913F912F910F900FBE0F901F905C
:100B000018951F920F920FB60F9211240BB60F92E9
:100B10002F933F934F935F936F937F938F939F9305
:100B2000AF93BF93EF93FF93E0910E02F0910F020A
:100B30001995FF91EF91BF91AF919F918F917F9107
:100B40006F915F914F913F912F910F900BBE0F903E
:100B50000FBE0F901F9018951F920F920FB60F9215
:100B600011240BB60F922F933F934F935F936F9384
:100B70007F938F939F93AF93BF93EF93FF93E091F6
:100B80000C02F0910D021995FF91EF91BF91AF9179
:100B90009F918F917F916F915F914F913F912F9195
:100BA0000F900BBE0F900FBE0F901F9018951F92C5
:100BB0000F920FB60F9211240BB60F922F933F9303
:100BC0004F935F936F937F938F939F93AF93BF9355
:100BD000EF93FF93E0910202F09103021995FF91C8
:100BE000EF91BF91AF919F918F917F916F915F91A5
:100BF0004F913F912F910F900BBE0F900FBE0F9012
:100C00001F9018951F920F920FB60F9211240BB6DA
:100C10000F922F933F934F935F936F937F938F9395
:100C20009F93AF93BF93EF93FF93E0910002F091F6
:100C300001021995FF91EF91BF91AF919F918F9113
:100C40007F916F915F914F913F912F910F900BBECC
:100C50000F900FBE0F901F9018951F920F920FB616
:100C60000F9211240BB60F922F933F934F935F93E4
:100C70006F937F938F939F93AF93BF93EF93FF9364
:100C8000E0910A02F0910B021995FF91EF91BF914B
:100C9000AF919F918F917F916F915F914F913F9114
:100CA0002F910F900BBE0F900FBE0F901F901895B5
:100CB0001F920F920FB60F9211240BB60F922F9323
:100CC0003F934F935F936F937F938F939F93AF93D4
:100CD000BF93EF93FF93E0910802F09109021995F9
:100CE000FF91EF91BF91AF919F918F917F916F9104
:100CF0005F914F913F912F910F900BBE0F900FBEC0
:100D00000F901F9018951F920F920FB60F921124FB
:100D10000BB60F922F933F934F935F936F937F93F5
:100D20008F939F93AF93BF93EF93FF93E09106024E
:100D3000F09107021995FF91EF91BF91AF919F91AB
:100D40008F917F916F915F914F913F912F910F9074
:100D50000BBE0F900FBE0F901F9018951F920F9211
:100D60000FB60F9211240BB60F922F933F934F9310
:100D70005F936F937F938F939F93AF93BF93EF9303
:100D8000FF93E0910402F09105021995FF91EF9114
:100D9000BF91AF919F918F917F916F915F914F9193
:100DA0003F912F910F900BBE0F900FBE0F901F9091
:100DB00018951F920F920FB60F9211240BB60F9237
:100DC0002F933F934F935F936F937F938F939F9353
:100DD000AF93BF93EF93FF938091B900887F8036E4
:100DE00009F49CC068F5883209F45BC090F4803146
:100DF00009F454C038F4882309F4F6C0883009F4A3
:100E00004DC0F5C0883109F44CC0803209F45DC092
:100E1000EEC0803409F468C048F4803309F455C04A
:100E2000883309F0E4C080932205D8C0803509F4E6
:100E30004FC0883509F45DC0883409F0D8C0D6C0E9
:100E4000883909F4C7C0A8F4883709F467C038F4B2
:100E5000883609F463C0803709F460C0C8C0883898
:100E600009F4B8C0803909F45FC0803809F0BFC008
:100E70005BC0803B09F486C038F4803A09F466C050
:100E8000883A09F47FC0B3C0803C09F4A7C0883C0D
:100E900009F4A4C0883B09F48AC0A9C08091480520
:100EA00010C09091470580914605981770F5E09124
:100EB000470581E08E0F80934705F0E0EA5DFA4F29
:100EC00080818093BB0085EC86C0809322058EC014
:100ED000E091470581E08E0F809347058091BB002C
:100EE000F0E0EA5DFA4F80839091470580914605D6
:100EF0006EC0E091470581E08E0F80934705809199
:100F0000BB00F0E0EA5DFA4F8083809125058111F6
:100F10006DC081E08093240584EA61C083E0809302
:100F2000230510922105CFCF80912105803208F052
:100F300051C0E091210581E08E0F809321058091C1
:100F4000BB00F0E0EF5FFA4F8083BDCF85EC80936C
:100F5000BC001092230580912105803230F4E0918D
:100F60002105F0E0EF5FFA4F10826091210570E0FB
:100F7000E091FF04F091000581E095E01995109251
:100F8000210535C084E0809323051092FE04109261
:100F9000FD04E091FB04F091FC0419958091FD049F
:100FA000811105C081E08093FD041092DB04E09183
:100FB000FE0481E08E0F8093FE04F0E0E552FB4FCB
:100FC00080818093BB009091FE048091FD0498176E
:100FD00008F479CF85E88093BC0009C085EC809344
:100FE000BC001092230503C0109222053ADBFF914A
:100FF000EF91BF91AF919F918F917F916F915F9191
:101000004F913F912F910F900BBE0F900FBE0F90FD
:101010001F9018958F929F92AF92BF92CF92DF92BE
:10102000EF92FF920F931F93CF93DF93EC014B014D
:101030005A01690167E774E018DC7E0186E0E80E7A
:10104000F11C67E774E0C70110DC8E01045F1F4FDD
:1010500067E774E0C80109DC1B8A1A8A8AE090E01D
:101060009D8B8C8B84E190E09F8B8E8B8EE190E04A
:10107000998F888F1A8EB401C701D7DBB501CE01D5
:10108000D4DBB601C801DF91CF911F910F91FF9082
:10109000EF90DF90CF90BF90AF909F908F90C5CB97
:1010A0008F929F92AF92BF92CF92DF92EF92FF9278
:1010B0000F931F93CF93DF934B015C0169017A017A
:1010C00061E08DE06DDCA5019401C701B60131D668
:1010D00028EE33E040E050E03CD569017A0160E25F
:1010E00071EA87E090E0A501940133D58901C90137
:1010F000880F991F880F991FEC012597812C912C3F
:1011000054018C149D04AE04BF04C4F461E084E077
:1011100047DC0230110518F0CE010197F1F760E0CD
:1011200084E03EDC0230110518F0CE010197F1F7A2
:101130008FEF881A980AA80AB80AE3CF60E08DE01A
:10114000DF91CF911F910F91FF90EF90DF90CF90A3
:10115000BF90AF909F908F9023CC009761F0FC01DF
:1011600001900020E9F73197AF01481B590BBC01F2
:1011700089E595E08DC880E090E008958F929F9278
:10118000AF92BF92CF92DF92EF92FF920F931F9395
:10119000CF93DF93CDB7DEB7A1970FB6F894DEBF3C
:1011A0000FBECDBF6C01990FEE08FF08F7FE2FC0F0
:1011B000E0915905F0915A050190F081E02D6DE222
:1011C00089E595E019958C0122273327A9012C196F
:1011D0003D094E095F0919A2CE0181967C019AE072
:1011E000892E912CA12CB12CCA01B901A501940121
:1011F000D6D4605DF70162937F0121153105410569
:10120000510591F7CF01A9DF080F191F1CC0A701D5
:10121000960119A28E010F5D1F4F8AE0C82ED12CB6
:10122000E12CF12CCA01B901A7019601B8D4605D87
:10123000F80162938F01211531054105510591F7A0
:10124000CF018BDF8C0185E794E087DF800F911F52
:10125000A1960FB6F894DEBF0FBECDBFDF91CF9140
:101260001F910F91FF90EF90DF90CF90BF90AF90C4
:101270009F908F900895CF93DF9300D01F92CDB7AA
:10128000DEB780917B00877F80937B0086E480932C
:101290007C0080917A00806480937A0080917A004B
:1012A00086FDFCCFA091780080917900B0E0B82B4A
:1012B00024E630E068D52FEF33E040E050E049D439
:1012C000C90129833A834B835C8358DF84E690E02D
:1012D00029813A81821B930B0F900F900F900F90F2
:1012E000DF91CF910895CF93DF93FC014481558125
:1012F0006081718189E595E00E944801EC0185E7F4
:1013000094E02BDF8C0F9D1FDF91CF91089583E236
:101310001FDB019719F481E080931A0680911A0669
:10132000882309F44AC0809112069091130626DFA3
:101330008091120690911306409114065091150663
:1013400097FD08C0841795072CF4892B19F586E0C2
:1013500096E01FC020911606309117068417950756
:101360004CF08217930734F48417950799F480E0C2
:1013700096E00FC040911806509119068217930706
:101380009CF08417950784F48217930719F48CE076
:1013900096E0A9DF80911206909113060196909332
:1013A00013068093120608958417950731F410925E
:1013B0001A0610921306109212060895CF93DF9327
:1013C000CCDEEC0185E794E0C8DE8C0F9D1FDF9139
:1013D000CF9108958EE994E0F1DF86E2B9DA0197C2
:1013E00021F410925205109258050895CF93DF937F
:1013F00081EB94E0E3DF82E2ABDA019759F481E01C
:101400008093580568EC70E080E090E0F8DA83EAB9
:1014100094E0D4DF809158058823E1F068EC70E017
:1014200080E090E0ECDA80915805882399F082E220
:101430008FDAEC01019739F4109258056CE271E0F3
:1014400080E090E0DCDACE0199DE88EA94E0B6DF55
:10145000C1DFE9CFDF91CF9108954F925F926F92F4
:101460007F928F929F92AF92BF92CF92DF92EF9234
:10147000FF920F931F93CF93DF939093FF05809379
:10148000FE05029709F055C087EB94E097DFCEEB9D
:10149000D3E02EE4A22E23E0B22E38EE832E33E0EA
:1014A000932EA4DF97DF80915205882309F495C01D
:1014B0002EDFE1DE8C0169917991C40149D46B0181
:1014C000770FEE08FF08F501619171915F01072E1A
:1014D000000C880B990BA7019601E2DDC701B6014C
:1014E00049D22B013C01B801110F880B990B42D254
:1014F00026E636E646E250E478D220E030E048ECDA
:1015000052E47ED39B01AC01C301B2016ED2E0D3A1
:10151000072E000C880B990B72DAA701960160E088
:1015200070E0CB01BDDDF4E0CE32DF0709F0B9CFCA
:1015300054C08BEC94E042DFC2EBD2E086E1A82EEF
:1015400082E0B82E98EE892E93E0992E4FDF42DF8D
:1015500080915205882309F440C0D9DE8CDE8C01CD
:1015600069917991C401F4D36B01770FEE08FF08FC
:10157000F501619171915F01072E000C880B990BA9
:10158000A70196018DDDC701B601F4D12B013C0105
:10159000B801110F880B990BEDD12DEC3CEC4CE010
:1015A00050E423D29B01AC01C301B2011ED220E062
:1015B00030E048EC52E424D38BD3072E000C880B88
:1015C000990B1DDAA701960160E070E0CB0168DDA0
:1015D000F3E0CE34DF0709F0B9CFDF91CF911F914F
:1015E0000F91FF90EF90DF90CF90BF90AF909F90C2
:1015F0008F907F906F905F904F900895789484B50E
:10160000826084BD84B5816084BD85B5826085BDFE
:1016100085B5816085BD80916E00816080936E008C
:10162000109281008091810082608093810080917E
:10163000810081608093810080918000816080932F
:1016400080008091B10084608093B1008091B000EF
:1016500081608093B00080919100826080939100BE
:1016600080919100816080939100809190008160D1
:10167000809390008091A10082608093A10080916E
:10168000A10081608093A1008091A000816080937F
:10169000A00080912101826080932101809121012D
:1016A00081608093210180912001816080932001DD
:1016B00080917A00846080937A0080917A008260C1
:1016C00080937A0080917A00816080937A00809183
:1016D0007A00806880937A001092C100E0916905D9
:1016E000F0916A0582E08083E0916505F0916605DE
:1016F0001082E0916705F09168058FEC808310926D
:101700007105E0916D05F0916E0586E08083E091B2
:101710006B05F0916C05808180618083E0916B05A1
:10172000F0916C05808188608083E0916B05F09179
:101730006C05808180688083E0916B05F0916C0579
:1017400080818F7D808310925205109253051092F4
:101750005405109255051092560510925705109297
:10176000580561E084E00E94CF0260E08CE30E94B3
:10177000CF0260E082E20E94CF0260E086E20E9437
:10178000CF0283EA93E0909301028093000280915C
:101790006A008C7F816080936A00EC9A8BEA93E008
:1017A000909303028093020280916A00837F846099
:1017B00080936A00ED9A83EB93E090930B02809301
:1017C0000A02809169008F73806480936900EB9AAC
:1017D0008BEB93E09093090280930802809169005B
:1017E0008F7C806180936900EA9A83EC93E0909308
:1017F00007028093060280916900837F8460809352
:101800006900E99A8BEC93E09093050280930402BF
:10181000809169008C7F816080936900E89A809153
:101820005205882351F081E090E017DE81E090E0DE
:1018300014DE82E090E011DE04C08091530588231D
:1018400019F00E94990310C0809154058111F9CFBD
:10185000809155058111F5CF809156058111F1CF09
:10186000809157058111EDCF0E944102D8CFCF93CF
:10187000DF93C0E0D6E08C859D8534D38E819F8137
:1018800031D388819981DF91CF912CC3CF93DF939E
:10189000CDB7DEB762970FB6F894DEBF0FBECDBFEF
:1018A000E9E5F5E01382128288EE93E0A0E0B0E073
:1018B00084839583A683B78322E334E03183208336
:1018C00025EC30E03587248724EC30E03787268705
:1018D00020EC30E0318B208B21EC30E0338B228BFD
:1018E00022EC30E0358B248B26EC30E0378B268BD6
:1018F000118E128E138E148EEBE1F6E0138212829B
:1019000084839583A683B78384E494E09183808362
:1019100068E774E0CE010D960E94350468E874E033
:10192000CE0107960E94350468E974E0CE01019665
:101930000E9435049E01235F3F4FAE01495F5F4F18
:10194000BE016F5F7F4F80E096E064DB89819A8102
:10195000C9D28F819885C6D28D859E85C3D2629665
:101960000FB6F894DEBF0FBECDBFDF91CF910895C3
:10197000E89409C097FB3EF4909580957095619529
:101980007F4F8F4F9F4F9923A9F0F92F96E9BB27DF
:101990009395F695879577956795B795F111F8CF5B
:1019A000FAF4BB0F11F460FF1BC06F5F7F4F8F4FC6
:1019B0009F4F16C0882311F096E911C0772321F0BC
:1019C0009EE8872F762F05C0662371F096E8862F54
:1019D00070E060E02AF09A95660F771F881FDAF7AB
:1019E000880F9695879597F908950BD078C069D0A0
:1019F00028F06ED018F0952309F05AC05FC011246A
:101A0000A2C07ED0A0F3959FD1F3950F50E0551F53
:101A1000629FF001729FBB27F00DB11D639FAA2743
:101A2000F00DB11DAA1F649F6627B00DA11D661F92
:101A3000829F2227B00DA11D621F739FB00DA11DB3
:101A4000621F839FA00D611D221F749F3327A00D6D
:101A5000611D231F849F600D211D822F762F6A2F09
:101A600011249F5750408AF0E1F088234AF0EE0F8E
:101A7000FF1FBB1F661F771F881F91505040A9F79B
:101A80009E3F510570F014C05EC05F3FECF3983E7E
:101A9000DCF3869577956795B795F795E7959F5F02
:101AA000C1F7FE2B880F911D9695879597F908959C
:101AB00097F99F6780E870E060E008959FEF80EC01
:101AC000089500240A9416161706180609060895A4
:101AD00000240A9412161306140605060895092E0A
:101AE0000394000C11F4882352F0BB0F40F4BF2B79
:101AF00011F460FF04C06F5F7F4F8F4F9F4F0895B9
:101B000057FD9058440F551F59F05F3F71F04795AE
:101B1000880F97FB991F61F09F3F79F08795089593
:101B2000121613061406551FF2CF4695F1DF08C0B2
:101B3000161617061806991FF1CF869571056105CF
:101B400008940895E894BB2766277727CB0197F977
:101B50000895052E97FB16F400940FD057FD05D07D
:101B60001ED007FC02D046F408C050954095309531
:101B700021953F4F4F4F5F4F0895909580957095F9
:101B800061957F4F8F4F9F4F08952BD0A59F900D4C
:101B9000B49F900DA49F800D911D11240895A1E282
:101BA0001A2EAA1BBB1BFD010DC0AA1FBB1FEE1FD7
:101BB000FF1FA217B307E407F50720F0A21BB30B22
:101BC000E40BF50B661F771F881F991F1A9469F79E
:101BD00060957095809590959B01AC01BD01CF01FA
:101BE0000895A29FB001B39FC001A39F700D811DF6
:101BF0001124911DB29F700D811D1124911D089516
:101C00000CD06DCF65DF40F05CDF30F021F45F3F3A
:101C100019F04ECF511197CF51CF72DF98F399231E
:101C2000C9F35523B1F3951B550BBB27AA276217A0
:101C30007307840738F09F5F5F4F220F331F441FE5
:101C4000AA1FA9F333D00E2E3AF0E0E830D091501D
:101C50005040E695001CCAF729D0FE2F27D0660F0A
:101C6000771F881FBB1F261737074807AB07B0E849
:101C700009F0BB0B802DBF01FF2793585F4F2AF05F
:101C80009E3F510568F014CF5ECF5F3FECF3983E66
:101C9000DCF3869577956795B795F7959F5FC9F7BC
:101CA000880F911D9695879597F90895E1E0660F45
:101CB000771F881FBB1F621773078407BA0720F0BE
:101CC000621B730B840BBA0BEE1F88F7E095089527
:101CD00004D06894B11137CF08951ADF88F09F5768
:101CE00090F0B92F9927B751A0F0D1F0660F771F68
:101CF000881F991F1AF0BA95C9F712C0B13081F048
:101D000021DFB1E008951ECF672F782F8827B85FB5
:101D100039F0B93FCCF3869577956795B395D9F7A8
:101D20003EF490958095709561957F4F8F4F9F4FB2
:101D30000895DB018F939F9328DFBF91AF91A29FFE
:101D4000800D911DA39F900DB29F900D11240895B9
:101D500097FB072E16F4009406D077FD08D019D013
:101D600007FC05D03EF4909581959F4F089570959E
:101D700061957F4F0895EE0FFF1F881F8BBF07905F
:101D8000F691E02D19942DDFB7FF0895821B930B78
:101D90000895AA1BBB1B51E107C0AA1FBB1FA617B2
:101DA000B70710F0A61BB70B881F991F5A95A9F704
:101DB00080959095BC01CD010895CF93DF9382303B
:101DC000910510F482E090E0E0912906F0912A0656
:101DD00020E030E0C0E0D0E0309711F14081518147
:101DE00048175907C0F04817590761F48281938159
:101DF000209719F09B838A832BC090932A068093A7
:101E0000290626C02115310519F04217530718F489
:101E10009A01BE01DF01EF010280F381E02DDCCFEA
:101E20002115310509F1281B390B2430310590F4B7
:101E300012968D919C9113976115710521F0FB010C
:101E40009383828304C090932A0680932906FD0120
:101E5000329644C0FD01E20FF31F8193919322500B
:101E600031092D933C933AC02091270630912806E2
:101E7000232B41F420911202309113023093280653
:101E8000209327062091100230911102211531056F
:101E900041F42DB73EB74091140250911502241B16
:101EA000350BE0912706F0912806E217F307A0F41E
:101EB0002E1B3F0B2817390778F0AC014E5F5F4FA0
:101EC0002417350748F04E0F5F1F509328064093A4
:101ED00027068193919302C0E0E0F0E0CF01DF910B
:101EE000CF9108950F931F93CF93DF93009709F439
:101EF0008CC0FC0132971382128200912906109146
:101F00002A060115110581F420813181820F931F6A
:101F100020912706309128062817390779F5F09384
:101F20002806E093270671C0D80140E050E0AE17C4
:101F3000BF0750F412962D913C911397AD012115D6
:101F4000310509F1D901F3CF9D01DA0133832283F1
:101F500060817181860F971F8217930769F4EC01E6
:101F600028813981260F371F2E5F3F4F3183208311
:101F70008A819B8193838283452B29F4F0932A06DF
:101F8000E093290642C01396FC93EE931297ED015D
:101F9000499159919E01240F351FE217F30771F4FF
:101FA00080819181840F951F029611969C938E9348
:101FB0008281938113969C938E931297E0E0F0E0D8
:101FC000D80112968D919C911397009719F0F80102
:101FD0008C01F6CF8D919C9198012E5F3F4F820F1F
:101FE000931F20912706309128062817390769F496
:101FF000309729F410922A061092290602C0138203
:1020000012821093280600932706DF91CF911F912B
:102010000F9108956F927F928F929F92AF92BF928D
:10202000CF92DF92EF92FF920F931F93CF93DF93A4
:10203000EC01009781F4CB01DF91CF911F910F91BB
:10204000FF90EF90DF90CF90BF90AF909F908F90D8
:102050007F906F90B2CEFC01E60FF71F9C012250DB
:102060003109E217F30708F4A8C0D9010D911C91BA
:10207000119706171707A8F00530110508F49BC043
:10208000C80104978617970708F495C002501109F4
:10209000061B170B019311936D937C93CF0122DFE5
:1020A0008AC05B01A01AB10A4C01800E911EA0915A
:1020B0002906B0912A0640E050E0E12CF12C10975F
:1020C00009F44AC0A815B905D1F56D907C90119717
:1020D000630182E0C80ED11CCA14DB0480F1A301A5
:1020E0004A195B096A0182E0C80ED11C1296BC90A5
:1020F00012971396AC91B5E0CB16D10440F0B282A2
:10210000A38351834083D9016D937C930AC00E5FF2
:102110001F4FC301800F911FF90191838083EB2D25
:10212000FA2FE114F10431F0D7011396FC93EE93EA
:10213000129741C0F0932A06E09329063CC08D9186
:102140009C9111974817590708F4AC017D0112962C
:102150000D90BC91A02DB3CF8091270690912806B9
:1021600088159905E1F446175707C8F480911002C5
:1021700090911102009741F48DB79EB740911402DF
:1021800050911502841B950BE817F907B0F4F093F2
:102190002806E0932706F901718360830CC0CB0108
:1021A0000CDE7C01009749F0A801BE011BD0CE01D6
:1021B00099DEC70104C0CE0102C080E090E0DF914B
:1021C000CF911F910F91FF90EF90DF90CF90BF9034
:1021D000AF909F908F907F906F90089581E090E0F6
:1021E000F89410C0FB01DC0102C001900D92415037
:1021F0005040D8F70895FB01DC0101900D920020BA
:10220000E1F7089511E0C5E1D1E000E005C0802FBD
:10221000FE01B1DD2196011DC631D10780E008071E
:06222000B1F7F894FFCFB6
:102226003003300330033003300330033003300310
:1022360000002B0680004D0A4D0A00004D0A0000E2
:102246002D084D0A0000400C00000000000020068A
:102256000000000000002D0800000000200600001D
:102266000000270500000000E0060000B807000097
:102276004907E006000020064D0A400CC00D00008C
:10228600EA0A400C00004D0A00002D082D09B80787
:10229600000000002D0800000000200600000000DD
:1022A600270500000000E0060000B8070000490707
:1022B600E006000020064D0A400CC00D0000EA0AA8
:1022C600400C00004D0A00002D082D09B80700003B
:1022D60000000C000C000C000C000C000C000C00A4
:1022E6000C000C000C000C000C000C000C000C0088
:1022F6000C000C000C000C000C000C000C000C0078
:102306000C000C000C000C000C000C000C000C0067
:102316000C000900090009000C000C000C000C0060
:102326000C000C000C000C000C000C000C000C0047
:102336000C000C000C000C000C000C000C000C0037
:102346000C000C000C000C000C000C000C000C0027
:102356000900090009000C000C000C000C000C0020
:102366000C000C000C000C000C000C000C0006010C
:102376000B02DC00B801E900D201000000000601F2
:102386000B02DC00B801E900D20100000000AF003A
:102396005D01930026019C00370100000000AF009C
:1023A6005D01930026019C00370100000000370103
:1023B60015012601150137013701D000C4001501AA
:1023C600060172015D01A500D201B8019F01370126
:1023D600F700E900DC00D0000000000000000C005F
:1023E6000C000C000C000C000C00060003000C0096
:1023F6000C000C000C000C000C00060003000C0086
:102406000C000C000C000C000C00060003000C0075
:102416000C000C000C000C000C000600060012005C
:10242600120012000600060006000600060006005E
:102436001200120012001200120012000A000A0016
:102446000A000A000A000A00030003000300000055
:102456000000DA01480173012002A40182019601FD
:102466000000000085037103960363036A03670394
:1024760064037369206573206D6172696F676767AE
:1024860067676767007369200033200034200035D2
:1024960020003620000D0A005361626572207175B6
:1024A60069656E20667565004D617276696E204DB0
:1024B600617274696E657A004D6172696F0073743A
:1024C6006F70004C45454F006573746F7920656EDB
:1024D600207061757361002027556E646572776F91
:1024E600726C64205468656D65270020274D617203
:0A24F600696F205468656D652700CA
:020000023000CC
:10E000000D9489F10D94B2F10D94B2F10D94B2F129
:10E010000D94B2F10D94B2F10D94B2F10D94B2F1F0
:10E020000D94B2F10D94B2F10D94B2F10D94B2F1E0
:10E030000D94B2F10D94B2F10D94B2F10D94B2F1D0
:10E040000D94B2F10D94B2F10D94B2F10D94B2F1C0
:10E050000D94B2F10D94B2F10D94B2F10D94B2F1B0
:10E060000D94B2F10D94B2F10D94B2F10D94B2F1A0
:10E070000D94B2F10D94B2F10D94B2F10D94B2F190
:10E080000D94B2F10D94B2F10D94B2F10D94B2F180
:10E090000D94B2F10D94B2F10D94B2F10D94B2F170
:10E0A0000D94B2F10D94B2F10D94B2F10D94B2F160
:10E0B0000D94B2F10D94B2F10D94B2F10D94B2F150
:10E0C0000D94B2F10D94B2F10D94B2F10D94B2F140
:10E0D0000D94B2F10D94B2F10D94B2F10D94B2F130
:10E0E0000D94B2F141546D656761323536300041AF
:10E0F000726475696E6F206578706C6F72657220DE
:10E1000073746B3530305632206279204D4C530099
:10E11000426F6F746C6F616465723E004875683F52
:10E1200000436F6D70696C6564206F6E203D200048
:10E130004350552054797065202020203D20005FF9
:10E140005F4156525F415243485F5F3D2000415658
:10E1500052204C696243205665723D20004743437C
:10E160002056657273696F6E203D20004350552024
:10E1700049442020202020203D20004C6F7720663D
:10E18000757365202020203D20004869676820665F
:10E190007573652020203D200045787420667573D6
:10E1A00065202020203D20004C6F636B2066757336
:10E1B000652020203D20004D617220203720323024
:10E1C000313300312E362E3800342E332E350056A2
:10E1D00023202020414444522020206F7020636F70
:10E1E00064652020202020696E73747275637469E1
:10E1F0006F6E2061646472202020496E74657272B3
:10E20000757074006E6F20766563746F7200726A49
:10E210006D702020006A6D70200057686174207056
:10E220006F72743A00506F7274206E6F7420737541
:10E2300070706F72746564004D7573742062652030
:10E2400061206C6574746572002000577269747483
:10E25000696E672045450052656164696E672045B7
:10E26000450045452065727220636E743D00504F35
:10E27000525400303D5A65726F2061646472003FF1
:10E280003D43505520737461747300403D454550C3
:10E29000524F4D207465737400423D426C696E6B41
:10E2A000204C454400453D44756D70204545505215
:10E2B0004F4D00463D44756D7020464C415348001B
:10E2C000483D48656C70004C3D4C69737420492F83
:10E2D0004F20506F72747300513D51756974005234
:10E2E0003D44756D702052414D00563D73686F7707
:10E2F00020696E7465727275707420566563746FF0
:10E30000727300593D506F727420626C696E6B00BD
:10E310002A0011241FBECFEFD1E2DEBFCDBF01E046
:10E320000CBF12E0A0E0B2E0EEE1FDEF03E00BBFB6
:10E3300002C007900D92A030B107D9F712E0A0E01B
:10E34000B2E001C01D92AE30B107E1F70F9460F367
:10E350000D948DFE01E20EBF0FEF0DBF11241FBE05
:10E360000D9460F30D9400F020E030E040ED57E0B4
:10E3700005C0FA013197F1F72F5F3F4F2817390792
:10E38000C0F308959C01260F311DC901A0E0B0E043
:10E390002F5F3F4FABBFFC018791882361F08093D3
:10E3A000C6008091C00086FFFCCF8091C0008064D1
:10E3B0008093C000EACF08958DE08093C6008091DD
:10E3C000C00086FFFCCF8091C00080648093C000B5
:10E3D0008AE08093C6008091C00086FFFCCF8091C8
:10E3E000C00080648093C00008950F94C2F10F9420
:10E3F000DCF10895FC019081992359F09093C600B7
:10E400008091C00086FFFCCF8091C0008064809323
:10E41000C0003196992379F70895282F982F929567
:10E420009F70892F805D8A3308F0895F8093C600D2
:10E430008091C00086FFFCCF8091C00080648093F3
:10E44000C000822F8F70982F905D9A3308F0995FEB
:10E450009093C6008091C00086FFFCCF8091C000E1
:10E4600080648093C00008959C01FB01853691056E
:10E470001CF46330710594F0C90164E670E00F94F8
:10E480002EFE605D7F4F6093C6008091C00086FFC6
:10E49000FCCF8091C00080648093C0002B30310598
:10E4A00014F43297B4F0C90164E670E00F942EFEC4
:10E4B0006AE070E00F942EFE605D7F4F6093C600AF
:10E4C0008091C00086FFFCCF8091C0008064809363
:10E4D000C000C9016AE070E00F942EFEC0968093E0
:10E4E000C6008091C00086FFFCCF8091C000806490
:10E4F0008093C00008951F93182F8EE692EE60E07F
:10E500000F94C2F11093C6008091C00086FFFCCF2B
:10E510008091C00080648093C0000F94DCF11F9153
:10E5200008952F923F924F925F926F927F928F92B7
:10E530009F92AF92BF92CF92DF92EF92FF920F9392
:10E540001F93DF93CF93CDB7DEB762970FB6F894E2
:10E55000DEBF0FBECDBF382E622ECA01DB015C01CB
:10E560006D01772420E2222E2E010894411C511CBB
:10E570008BC081E0A81680E0B80681E0C80680E084
:10E58000D80628F0C601AA27BB270F940DF2BB2797
:10E59000AD2D9C2D8B2D0F940DF28A2D0F940DF225
:10E5A0002092C6008091C00086FFFCCF8091C00001
:10E5B00080648093C0009DE29093C6008091C0006B
:10E5C00086FFFCCF8091C00080648093C0002092C1
:10E5D000C6008091C00086FFFCCF8091C00080649F
:10E5E0008093C00019828601750188249924A1E0D6
:10E5F0003A1651F03A1620F0B2E03B1661F409C029
:10E600000BBFF701779007C0C7010F9477FE782EF4
:10E6100002C0F7017080872D0F940DF22092C60082
:10E620008091C00086FFFCCF8091C0008064809301
:10E63000C000872D8052F401EF70F0708F3520F408
:10E64000E40DF51D708204C0E40DF51D8EE280839B
:10E650000894E11CF11C011D111D0894811C911CE2
:10E6600090E18916910409F0C2CF80E190E0A0E02A
:10E67000B0E0A80EB91ECA1EDB1E198AC2010F9493
:10E68000FAF10F94DCF16A94662009F072CF629679
:10E690000FB6F894DEBF0FBECDBFCF91DF911F91B3
:10E6A0000F91FF90EF90DF90CF90BF90AF909F9031
:10E6B0008F907F906F905F904F903F902F90089534
:10E6C0002F923F924F925F926F927F928F929F9282
:10E6D000AF92BF92CF92DF92EF92FF920F931F9370
:10E6E000DF93CF93CDB7DEB7CD53D1400FB6F894BB
:10E6F000DEBF0FBECDBF01E20EBF0FEF0DBF94B75F
:10E70000F894A89514BE80916000886180936000A1
:10E7100010926000789493FF05C0E0910002F091A0
:10E7200001021995279A2F9A8091C00082608093E8
:10E73000C00080E18093C40088E18093C1000000A4
:10E74000EE24FF24870144E0A42EB12CCC24DD2448
:10E7500024C0C5010197F1F70894E11CF11C011DCB
:10E76000111D21E2E2162EE4F20620E0020720E06D
:10E77000120718F031E0C32ED12CC801B70127ECE5
:10E780003BE140E050E00F9441FE611571058105C9
:10E79000910519F485B1805885B98091C00087FD35
:10E7A00003C0C114D104A9F2A6014F5F5F4FC25E3E
:10E7B000DE4F59834883CE51D140C25EDE4F8881FF
:10E7C0009981CE51D140019711F00D9410FEC05D9A
:10E7D000DE4F19821882C053D14060E0C15DDE4F28
:10E7E0001882CF52D14088249924C35DDE4F19820C
:10E7F0001882CD52D140C05EDE4F188219821A8233
:10E800001B82C052D140CE5CDE4F188219821A8220
:10E810001B82C253D140EE24FF2487010BBFF701B6
:10E8200007911691C45CDE4F19830883CC53D14005
:10E830000D940BFEC25EDE4F28813981CE51D1404E
:10E840002130310509F52091C600C25EDE4F1982E4
:10E850001882CE51D14022C02F5F3F4F4F4F5F4FA4
:10E86000213082E138078AE7480780E0580780F0C6
:10E87000C45CDE4FE881F981CC53D140EF5FFF4F9C
:10E8800019F0EE27FF27099420E030E040E050E047
:10E890008091C00087FFE0CF2091C600C35DDE4FAE
:10E8A00048815981CD52D1404F5F5F4FC35DDE4FEC
:10E8B00059834883CD52D140213209F063C64A3092
:10E8C000510508F05FC60894811C911C53E0851621
:10E8D000910409F059C600E010E018C081E280936D
:10E8E000C6008091C00086FFFCCF8091C00080648C
:10E8F0008093C0002F5F3F4F2931310579F70F9486
:10E90000DCF10F5F1F4F0530110519F020E030E0FA
:10E91000E5CF10920A0210920B0210920C02109294
:10E920000D02109206021092070210920802109235
:10E930000902109202021092030210920402109235
:10E9400005028FEE90EE60E00F94F5F180E191EE1C
:10E9500060E00F94C2F18091C00087FFFCCF9091DE
:10E96000C600903608F09F759032B8F09093C600BC
:10E970008091C00086FFFCCF8091C00080648093AE
:10E98000C000A0E2A093C6008091C00086FFFCCF2B
:10E990008091C00080648093C000983409F4D7C18E
:10E9A0009934B8F4923409F459C1933458F490333B
:10E9B00019F1903308F4E3C59F33A1F1903409F0C5
:10E9C000DEC5BDC0953409F470C1963409F0D7C5D1
:10E9D00098C1923509F42BC2933538F49C3409F46C
:10E9E000F5C1913509F0CBC518C2963509F445C279
:10E9F000993509F0C4C567C483E792EE62E00F94CD
:10EA0000F5F110920602109207021092080210927D
:10EA1000090210920A0210920B0210920C0210923C
:10EA20000D0213C18FE792EE62E00F94F5F18FEEC5
:10EA300090EE60E00F94F5F181E291EE60E00F94CA
:10EA4000C2F187EB91EE60E00F94F5F180E391EE77
:10EA500060E00F94C2F184EE90EE60E00F94F5F167
:10EA60008FE391EE60E00F94C2F186E090E061E008
:10EA700070E00F9434F20F94DCF18DE591EE60E0DC
:10EA80000F94C2F189EC91EE60E00F94F5F18EE401
:10EA900091EE60E00F94C2F183EC91EE60E00F9490
:10EAA000F5F18CE691EE60E00F94C2F18EE10F94E7
:10EAB0000DF288E90F940DF281E00F940DF20F949E
:10EAC000DCF18BE791EE60E00F94C2F119E0E0E039
:10EAD000F0E010935700E4918E2F0F940DF20F94F5
:10EAE000DCF18AE891EE60E00F94C2F1E3E0F0E03F
:10EAF00010935700E4918E2F0F940DF20F94DCF1D8
:10EB000089E991EE60E00F94C2F1E2E0F0E0109349
:10EB10005700E4918E2F0F940DF20F94DCF188EAE8
:10EB200091EE60E00F94C2F1E1E0F0E01093570045
:10EB30001491812F0F940DF20F94DCF107CF8BE825
:10EB400092EE62E00F94F5F18BE492EE60E00F94A8
:10EB5000F5F10F94DCF100E010E019C0C8016F2D51
:10EB60000F947FFEFF2031F489E492EE60E00F9471
:10EB7000C2F10BC0F092C6008091C00086FFFCCFAE
:10EB80008091C00080648093C0000F5F1F4FC80158
:10EB900081519F41A0E0B0E0ABBFFC01F790BAE229
:10EBA000FB1621F0E2E000301E07C1F60F94DCF105
:10EBB0000F94DCF187E592EE60E00F94F5F10F948D
:10EBC000DCF1CC24DD2400E010E01EC0C8010F946D
:10EBD00077FEF82E882331F489E492EE60E00F94FA
:10EBE000C2F10BC08093C6008091C00086FFFCCFAD
:10EBF0008091C00080648093C000FE1419F00894D6
:10EC0000C11CD11C0F5F1F4FC80181519F41A0E063
:10EC1000B0E0ABBFFC01E790FAE2EF1621F022E092
:10EC20000030120799F60F94DCF10F94DCF182E6C4
:10EC300092EE60E00F94C2F1C60161E070E00F94C3
:10EC400034F20F94DCF10F94DCF110920202109276
:10EC50000302109204021092050278CE89E992EE26
:10EC600062E00F94F5F1279A2F9A16C02F9880E052
:10EC700090E0E0EDF7E03197F1F7019684369105E9
:10EC8000C1F72F9A80E090E0E0EDF7E03197F1F7DF
:10EC9000019684369105C1F78091C00087FFE6CFC9
:10ECA0008091C00087FFFCCF64C485EA92EE62E0E9
:10ECB0000F94F5F140910202509103026091040219
:10ECC0007091050281E020E10F9491F2809102029F
:10ECD00090910302A0910402B091050280509F4FD1
:10ECE000AF4FBF4F8093020290930302A0930402A0
:10ECF000B093050280509041A040B04008F426CE69
:10ED0000A4CF83EB92EE62E00F94F5F140910602FE
:10ED100050910702609108027091090280E020E1A1
:10ED20000F9491F28091060290910702A09108023F
:10ED3000B091090280509F4FAF4FBF4F80930602A2
:10ED400090930702A0930802B0930902FFCD80ECD4
:10ED500092EE62E00F94F5F183E792EE60E00F949B
:10ED6000F5F18FE792EE60E00F94F5F18BE892EE0B
:10ED700060E00F94F5F189E992EE60E00F94F5F10F
:10ED800085EA92EE60E00F94F5F183EB92EE60E09D
:10ED90000F94F5F180EC92EE60E00F94F5F187ECC2
:10EDA00092EE60E00F94F5F188ED92EE60E00F9442
:10EDB000F5F18FED92EE60E00F94F5F18AEE92EEB0
:10EDC00060E00F94F5F183E093EEBDCD87EC92EE19
:10EDD00062E00F94F5F181E40F947BF282E40F94EA
:10EDE0007BF283E40F947BF284E40F947BF285E45E
:10EDF0000F947BF286E40F947BF287E40F947BF20E
:10EE000088E40F947BF28AE40F947BF28BE40F94F6
:10EE10007BF28CE40F947BF299CD88ED92EE62E068
:10EE20000F94F5F1772473948824992409C48FED05
:10EE300092EE62E00F94F5F140910A0250910B02BC
:10EE400060910C0270910D0282E020E10F9491F22A
:10EE500080910A0290910B02A0910C02B0910D02D8
:10EE600080509F4FAF4FBF4F80930A0290930B0289
:10EE7000A0930C02B0930D0269CD8AEE92EE62E08F
:10EE80000F94F5F184EE90EE60E00F94F5F18FECC5
:10EE900091EE60E00F94F5F1662477244301CC5D98
:10EEA000DE4F19821882C452D140D401C301B695F5
:10EEB000A79597958795CA5DDE4F88839983AA8326
:10EEC000BB83C652D140CC5DDE4FA881B981C4520C
:10EED000D1401196CC5DDE4FB983A883C452D14096
:10EEE000CD0162E070E00F9434F2B0E2B093C6005E
:10EEF0008091C00086FFFCCF8091C0008064809329
:10EF0000C000EDE2E093C6008091C00086FFFCCF18
:10EF10008091C00080648093C000F0E2F093C6004E
:10EF20008091C00086FFFCCF8091C00080648093F8
:10EF3000C000CA5DDE4FE880F9800A811B81C6529D
:10EF4000D140BB27A12F902F8F2D0F940DF2CA5DBA
:10EF5000DE4F8881C652D1400F940DF2B0E2FB2EF5
:10EF6000F092C6008091C00086FFFCCF8091C00067
:10EF700080648093C0000DE30093C6008091C000C0
:10EF800086FFFCCF8091C00080648093C00010E2B7
:10EF90001093C6008091C00086FFFCCF8091C00016
:10EFA00080648093C0008BBEF3012791C65DDE4F65
:10EFB0002883CA52D140A22EBB24CC24DD2408943D
:10EFC000611C711C811C911C8BBEF3018791282E42
:10EFD0003324442455240894611C711C811C911C09
:10EFE0008BBEF3013791C55DDE4F3883CB52D140E4
:10EFF0000894611C711C811C911C8BBEF30147910C
:10F00000C45DDE4F4883CC52D140ADEFEA2EAFEF66
:10F01000FA2EAFEF0A2FAFEF1A2F6E0C7F1C801E57
:10F02000911E142D032DF22CEE24EA0CFB1C0C1D5A
:10F030001D1D0F940DF220E22093C6008091C000A8
:10F0400086FFFCCF8091C00080648093C000C65DC5
:10F05000DE4F8881CA52D1400F940DF230E23093D6
:10F06000C6008091C00086FFFCCF8091C000806404
:10F070008093C000C45DDE4F8881CC52D1400F9494
:10F080000DF240E24093C6008091C00086FFFCCFA5
:10F090008091C00080648093C000C55DDE4F888190
:10F0A000CB52D1400F940DF250E25093C6008091A4
:10F0B000C00086FFFCCF8091C00080648093C000B8
:10F0C0008FEFE8168FEFF80680E0080780E018075A
:10F0D00031F484E092EE60E00F94C2F1DFC0D80119
:10F0E000C7018070907CA070B0708050904CA040A0
:10F0F000B040D1F52FEF3FE340E050E0E222F322B1
:10F1000004231523CA5DDE4FA880B980CA80DB8046
:10F11000C652D140AE0CBF1CC01ED11EAA0CBB1CD7
:10F12000CC1CDD1C8EE092EE60E00F94C2F1BB2798
:10F13000A12F902F8F2D0F940DF28E2D0F940DF285
:10F1400030E23093C6008091C00086FFFCCF8091F2
:10F15000C00080648093C0004EE34093C60080915D
:10F16000C00086FFFCCF87C08EE09EEFA0E0B0E03D
:10F17000E822F9220A231B239CE0E91694E9F90608
:10F1800090E0090790E0190709F088C0C45DDE4FE0
:10F19000A881CC52D140EA2EFF2400E010E0102FCD
:10F1A0000F2DFE2CEE24C55DDE4FB881CB52D14031
:10F1B000EB0EF11C011D111DD601C501817090706F
:10F1C000A070B070DC0199278827E80EF91E0A1F8D
:10F1D0001B1F20EF30E040E050E0A222B322C42207
:10F1E000D52241E1AA0CBB1CCC1CDD1C4A95D1F7F1
:10F1F000EA0CFB1C0C1D1D1D81E090E0A0E0B0E0BE
:10F20000282239224A225B2235E1220C331C441C7D
:10F21000551C3A95D1F7E20CF31C041D151D57013E
:10F220006801AA0CBB1CCC1CDD1C85E192EE60E0E1
:10F230000F94C2F1C801AA27BB270F940DF2BB2778
:10F24000A12F902F8F2D0F940DF28E2D0F940DF274
:10F2500090E29093C6008091C00086FFFCCF809121
:10F26000C00080648093C000AEE3A093C60080918C
:10F27000C00086FFFCCF8091C00080648093C000F6
:10F28000C601AA27BB270F940DF2BB27AD2D9C2DDD
:10F290008B2D0F940DF28A2D0F940DF20F94DCF14B
:10F2A000CC5DDE4FE881F981C452D140F99709F471
:10F2B0004DCBF4E0EF2EF12C012D112D6E0C7F1CA7
:10F2C000801E911EF2CD83E093EE62E00F94F5F183
:10F2D0008AE192EE60E00F94C2F18091C00087FF56
:10F2E000FCCF1091C6001F751093C6008091C0001E
:10F2F00086FFFCCF8091C00080648093C0000F9493
:10F30000DCF1812F81548A3108F036C1163409F4BA
:10F3100095C0173490F4133409F44EC0143430F40B
:10F320001134F1F0123409F01DC130C0143409F465
:10F3300059C0153409F016C16BC01A3409F4C4C0A1
:10F340001B3438F4173409F48FC0183409F00AC19B
:10F35000A1C01B3409F4D2C01C3409F003C1E8C0B9
:10F360008FEF81B90DC082B1809582B980E090E0C5
:10F37000E0EDF7E03197F1F70196883C9105C1F790
:10F380008091C00087FFEFCF12B8EFC08FEF84B934
:10F390000DC085B1809585B980E090E0E0EDF7E0A3
:10F3A0003197F1F70196883C9105C1F78091C00033
:10F3B00087FFEFCF15B8D9C08FEF87B90DC088B1DF
:10F3C000809588B980E090E0E0EDF7E03197F1F7C3
:10F3D0000196883C9105C1F78091C00087FFEFCF6F
:10F3E00018B8C3C08FEF8AB90DC08BB180958BB9A7
:10F3F00080E090E0E0EDF7E03197F1F70196883C8E
:10F400009105C1F78091C00087FFEFCF1BB8ADC059
:10F410008FEF8DB90DC08EB180958EB980E090E0F0
:10F42000E0EDF7E03197F1F70196883C9105C1F7DF
:10F430008091C00087FFEFCF1EB897C08FEF80BBD1
:10F440000DC081B3809581BB80E090E0E0EDF7E0F6
:10F450003197F1F70196883C9105C1F78091C00082
:10F4600087FFEFCF11BA81C08FEF83BB0DC084B38C
:10F47000809584BB80E090E0E0EDF7E03197F1F714
:10F480000196883C9105C1F78091C00087FFEFCFBE
:10F4900014BA6BC08FEF809301010FC080910201FD
:10F4A00080958093020180E090E0E0EDF7E03197F5
:10F4B000F1F70196883C9105C1F78091C00087FF64
:10F4C000EDCF1092020151C08FEF809304010FC065
:10F4D0008091050180958093050180E090E0E0ED4A
:10F4E000F7E03197F1F70196883C9105C1F78091DB
:10F4F000C00087FFEDCF1092050137C08FEF8093DA
:10F5000007010FC08091080180958093080180E079
:10F5100090E0E0EDF7E03197F1F70196883C910536
:10F52000C1F78091C00087FFEDCF109208011DC088
:10F530008FEF80930A010FC080910B01809580931B
:10F540000B0180E090E0E0EDF7E03197F1F70196F4
:10F55000883C9105C1F78091C00087FFEDCF1092E4
:10F560000B0103C085E292EEEEC98091C00087FFD7
:10F57000FCCF8091C600EAC988E392EEE4C98CE131
:10F5800091EEE1C988249924933011F1943028F444
:10F59000913089F09230B8F408C0953061F195301F
:10F5A000F0F0963009F048C043C02B3109F042C951
:10F5B00091E06BE13FC96227C15DDE4F2883CF52E6
:10F5C000D14092E037C9B22FA0E0622793E032C960
:10F5D000822F90E0A82BB92B622794E02BC92E3004
:10F5E00009F039C3622795E0C05DDE4F19821882A9
:10F5F000C053D1401FC9E1E0F0E0EC0FFD1FC05D3A
:10F60000DE4F08811981C053D140E00FF11F2083E4
:10F610000F5F1F4FC05DDE4F19830883C053D14079
:10F6200062270A171B0709F005C9D80196E002C92D
:10F63000261709F010C303C0973009F0FBC87724E0
:10F640009981933109F412C19431C8F4963009F4C8
:10F65000D8C0973050F4923009F406C1933009F4C1
:10F660006DC0913009F059C253C0913109F477C08F
:10F67000923108F0BBC0903109F04FC2F5C098310B
:10F6800009F487C0993150F4953109F4EFC09531F0
:10F6900008F4C6C1963109F040C2C2C19A3109F4DA
:10F6A0006CC09A3108F491C09B3109F45BC09D3164
:10F6B00009F033C29D81903359F48F81882311F46E
:10F6C0009EE11CC0813011F091E018C098E916C08D
:10F6D000892F807591F0903539F4E0E0F0E089E011
:10F6E0008093570094910AC0983539F4E3E0F0E034
:10F6F00089E080935700949101C090E01A821B82A8
:10F700008D818C831D829E831F8227E030E009C299
:10F710001A8288E08B8381E48C8386E58D8382E581
:10F720008E8389E48F8383E5888780E589878FE5E9
:10F730008A8782E38B872BE030E0F3C18A818139AD
:10F7400041F0823941F0803911F48FE005C080E04A
:10F7500003C082E001C08AE01A828B8344C0772410
:10F76000739482C08D81882311F48EE12CC0813086
:10F7700011F081E028C088E926C01A82E1E0F0E0BB
:10F7800089E08093570084918B831C8224E030E0D1
:10F79000C8C18B81803589F48C81883039F4E2E0EE
:10F7A000F0E089E08093570084910DC0E0E0F0E044
:10F7B00089E080935700849106C0E3E0F0E089E09F
:10F7C0008093570084911A82DFCF8D81836C99E0FA
:10F7D000E1E0F0E0082E90935700E89507B600FCB2
:10F7E000FDCF1A821B8223E030E09BC180EC8A832C
:10F7F000CE5CDE4F188219821A821B82C253D1401E
:10F800008EC18A8190E0A0E0B0E0582F44273327D2
:10F8100022278B8190E0A0E0B0E0DC0199278827C7
:10F82000282B392B4A2B5B2B8D8190E0A0E0B0E098
:10F83000282B392B4A2B5B2B8C8190E0A0E0B0E089
:10F84000BA2FA92F982F8827282B392B4A2B5B2BCF
:10F85000220F331F441F551FC05EDE4F288339839C
:10F860004A835B83C052D1401A8259C13A81C95C34
:10F87000DE4F3883C753D140CA5CDE4F1882C6536F
:10F88000D1408B81C82EDD24CA5CDE4F488159816E
:10F89000C653D140C42AD52A933109F082C0CE5C28
:10F8A000DE4F88819981AA81BB81C253D1408050AB
:10F8B000904CA340B04030F583E0CE5CDE4FE88052
:10F8C000F9800A811B81C253D140F70100935B008C
:10F8D00080935700E89507B600FCFDCFCE5CDE4F65
:10F8E000088119812A813B81C253D14000501F4FAA
:10F8F0002F4F3F4FCE5CDE4F088319832A833B8313
:10F90000C253D140C05EDE4F488159816A817B81FC
:10F91000C052D140DE011B9631E08C9111962C91A2
:10F9200011971296C75CDE4F2883C953D140C85C3B
:10F93000DE4F1882C853D14090E0C85CDE4FE881AA
:10F94000F981C853D1408E2B9F2B0C01FA01609393
:10F950005B0030935700E89511244E5F5F4F6F4F67
:10F960007F4F0EEFE02E0FEFF02ECE0CDF1CC114F8
:10F97000D10499F685E0C05EDE4F088119812A81A5
:10F980003B81C052D140F80120935B008093570027
:10F99000E89507B600FCFDCF81E180935700E8951C
:10F9A00035C0C05EDE4F88819981AA81BB81C0527B
:10F9B000D140B695A795979587957C018601ABE0D8
:10F9C000AA2EB12CAC0EBD1E0BC0D5016D915D01F0
:10F9D000C7010F947FFE0894E11CF11C01501040F8
:10F9E0000115110591F7A60160E070E0440F551F65
:10F9F000661F771FC05EDE4FE880F9800A811B8199
:10FA0000C052D1404E0D5F1D601F711F1A82C05E33
:10FA1000DE4F488359836A837B83C052D1407FC0C5
:10FA2000FA80C55CDE4FF882CB53D140C65CDE4F16
:10FA30001882CA53D1408B81C82EDD24C65CDE4FAC
:10FA400008811981CA53D140C02AD12A1A828981DA
:10FA5000BE016D5F7F4F843121F59601C05EDE4FA0
:10FA6000E880F9800A811B81C052D1400BBFF701A9
:10FA700087919691DB018C9311969C936E5F7F4FDB
:10FA8000D801C7010296A11DB11DC05EDE4F88835B
:10FA90009983AA83BB83C052D14022503040F1F6F3
:10FAA00036C0C05EDE4F288139814A815B81C052F9
:10FAB000D1400894C108D108760100E010E0089414
:10FAC000C11CD11C0894E11CF11C011D111DE20E8A
:10FAD000F31E041F151F21BDBB27A52F942F832FB5
:10FAE00082BD2F5F3F4F4F4F5F4FF89A80B5DB01CC
:10FAF0008D93BD012E153F054007510761F7C05E8C
:10FB0000DE4F288339834A835B83C052D1409601FC
:10FB10002D5F3F4FFB01108204C080EC8A8322E0FE
:10FB200030E08BE18093C6008091C00086FFFCCF5F
:10FB30008091C00080648093C000C15DDE4FF88179
:10FB4000CF52D140F093C6008091C00086FFFCCF19
:10FB50008091C00080648093C000432F3093C60022
:10FB60008091C00086FFFCCF8091C00080648093AC
:10FB7000C000922F2093C6008091C00086FFFCCF6A
:10FB80008091C00080648093C0008EE08093C600A6
:10FB90008091C00086FFFCCF8091C000806480937C
:10FBA000C00065E1C15DDE4FE880CF52D1406E25D7
:10FBB00069276427FE01319610C090819093C6009A
:10FBC0008091C00086FFFCCF31968091C000806498
:10FBD0008093C0006927215030402115310569F715
:10FBE0006093C6008091C00086FFFCCF8091C0006A
:10FBF00080648093C00085B1805885B9772081F4F6
:10FC0000C15DDE4F0881CF52D1400F5FC15DDE4F35
:10FC10000883CF52D14090E0A0E0B0E00D941AF4F8
:10FC200027982F9880E090E020ED37E0F901319798
:10FC3000F1F7019684369105C9F700008091C00064
:10FC40008D7F8093C00081E180935700E895EE2777
:10FC5000FF270994FFCF90E00D941AF497FB092E2B
:10FC600007260AD077FD04D02ED006D000201AF443
:10FC7000709561957F4F0895F6F7909581959F4F08
:10FC80000895A1E21A2EAA1BBB1BFD010DC0AA1FDD
:10FC9000BB1FEE1FFF1FA217B307E407F50720F0F5
:10FCA000A21BB30BE40BF50B661F771F881F991F70
:10FCB0001A9469F760957095809590959B01AC01B9
:10FCC000BD01CF010895AA1BBB1B51E107C0AA1FAC
:10FCD000BB1FA617B70710F0A61BB70B881F991FED
:10FCE0005A95A9F780959095BC01CD010895F99991
:10FCF000FECF92BD81BDF89A992780B50895262F31
:10FD0000F999FECF1FBA92BD81BD20BD0FB6F89400
:0EFD1000FA9AF99A0FBE01960895F894FFCF63
:040000033000E000E9
:00000001FF
