:1000000015C10000ABC600007EC6000051C600004E
:1000100024C60000F7C50000CAC500009DC5000049
:1000200070C5000034C1000032C1000030C10000C2
:100030002EC100002CC100002AC1000028C1000010
:1000400026C1000024C1000022C1000020C1000020
:100050001EC100001CC100001AC1000008C500003C
:1000600016C100003FC4000014C4000010C100000D
:100070000EC100000CC100000AC1000008C1000050
:1000800006C1000004C1000002C1000000C1000060
:10009000FEC00000FCC00000FAC000008AC60000DC
:1000A000F6C00000F4C00000F2C00000F0C0000084
:1000B000EEC00000ECC00000EAC00000E8C0000094
:1000C000E6C00000E4C00000E2C00000E0C00000A4
:1000D000DEC00000DCC00000DAC00000D8C00000B4
:1000E000D6C000009402970286028A029002CE02D5
:1000F0009B029F02A502A902AD02B302B702BB0296
:10010000CE02C102C502C90200002100240027005E
:100110002A002D0030003300010100000401070116
:100120000A0100002200250028002B002E003100CB
:10013000340002010000050108010B01000020004D
:100140002300260029002C002F00320000010000AF
:10015000030106010901050505050705080808084A
:10016000020202020A0A080804040404010101014F
:10017000010101010303030303030303040707074A
:100180000C0C0C0C0C0C0C0C0202020206060606EF
:10019000060606060B0B0B0B0B0B0B0B01021020BC
:1001A00020080810204010204080020102010804AD
:1001B0000201010204081020408080402010080441
:1001C000020180040201804020100804020108049A
:1001D00002010102040810204080010204081020DE
:1001E000408000000A0B02090C0D0E0807030401F1
:1001F00000000000000000000000000000000000FF
:1002000000000000000000000000000000001211CB
:1002100010000000000000000000000000000000CE
:100220000000000000000000460C370C11241FBE27
:10023000CFEFD1E2DEBFCDBF00E00CBF14E0A0E005
:10024000B2E0E6E2F2E200E00BBF02C007900D92DE
:10025000AA3DB107D9F726E0AAEDB4E001C01D928E
:10026000AB32B207E1F711E0C5E1D1E000E006C032
:1002700021970109802FFE010E94BB0EC431D107D6
:1002800080E00807A9F70E94FE0A0C940211B8CE7C
:10029000CF92DF92EF92FF920F931F93CF93DF9352
:1002A0006C017A018B01C0E0D0E0CE15DF0589F04A
:1002B000D8016D918D01D601ED91FC910190F081F5
:1002C000E02DC6011995892B11F47E0102C02196FB
:1002D000ECCFC701DF91CF911F910F91FF90EF906D
:1002E000DF90CF900895FC01538D448D252F30E091
:1002F000842F90E0821B930B541710F0CF96089533
:1003000001970895FC01918D828D981761F0828D7F
:10031000DF01A80FB11D5D968C91928D9F5F9F7339
:10032000928F90E008958FEF9FEF0895FC01918DDB
:10033000828D981731F0828DE80FF11D858D90E048
:1003400008958FEF9FEF0895FC01918D228D892FE5
:1003500090E0805C9F4F821B91098F7399270895CD
:1003600089E595E0F1DF21E0892B09F420E0822F77
:100370000895FC01848DDF01A80FB11DA35ABF4F62
:100380002C91848D90E001968F739927848FA68994
:10039000B7892C93A089B1898C9180648C93938DBB
:1003A000848D981306C00288F389E02D80818F7DAB
:1003B00080830895EF92FF920F931F93CF93DF9363
:1003C000EC0181E0888F9B8D8C8D981305C0E889A6
:1003D000F989808185FD23C0F62E0B8D10E00F5F1B
:1003E0001F4F0F731127E02E8C8DE8120BC00FB634
:1003F00007FCFACFE889F989808185FFF5CFCE0126
:10040000B8DFF2CF8B8DFE01E80FF11DE35AFF4FED
:10041000F0820B8FEA89FB898081806207C0EE89B8
:10042000FF896083E889F98980818064808381E025
:1004300090E0DF91CF911F910F91FF90EF90089581
:10044000CF93DF93EC01888D8823C1F0EA89FB8983
:10045000808185FD05C0A889B9898C9186FD0EC073
:100460000FB607FCF5CF808185FFF2CFA889B98947
:100470008C9185FFEDCFCE017CDFE8CFDF91CF916E
:10048000089580E090E0892B19F06ADF811125C082
:1004900080E090E0892B41F080E090E0892B21F012
:1004A0000E94000081111CC080E090E0892B41F087
:1004B00080E090E0892B21F00E940000811113C0A0
:1004C00080E090E0892BA1F080E090E0892B81F022
:1004D0000E94000081110AC008950E940000D8CF38
:1004E0000E940000E1CF0E940000EACF0C940000BF
:1004F000089590E0FC013197E231F10508F04EC01B
:100500008827EE58FF4F8F4F0C94BB0E80918000D0
:100510008F7703C0809180008F7D80938000089545
:1005200080918000877FF9CF84B58F7702C084B532
:100530008F7D84BD08958091B0008F7703C0809136
:10054000B0008F7D8093B0000895809190008F77E8
:1005500007C0809190008F7D03C080919000877FBD
:100560008093900008958091A0008F7707C08091BC
:10057000A0008F7D03C08091A000877F8093A000A2
:100580000895809120018F7707C0809120018F7D91
:1005900003C080912001877F809320010895CF932D
:1005A000DF9390E0FC01E456FE4F2491FC01EA5AEF
:1005B000FE4F8491882361F190E0880F991FFC0120
:1005C000E85FFE4FC591D491FC01EE5DFE4FA59111
:1005D000B491611109C09FB7F89488812095822356
:1005E0008883EC912E230BC0623061F49FB7F8949E
:1005F0003881822F809583238883EC912E2B2C9336
:100600009FBF06C08FB7F894E8812E2B28838FBF39
:10061000DF91CF9108953FB7F89480914E05909166
:100620004F05A0915005B091510526B5A89B05C076
:100630002F3F19F00196A11DB11D3FBFBA2FA92F61
:10064000982F8827820F911DA11DB11DBC01CD01DE
:1006500042E0660F771F881F991F4A95D1F70895CA
:10066000089585ED8093BC008091BC0084FDFCCF93
:100670001092230508954091FD04262F30E0240FA9
:10068000311D21323105DCF4209123052430C9F4D9
:10069000FC0180E090E0861758F43091FD04219130
:1006A000DC01A552BB4FA30FB11D2C930196F3CFD4
:1006B0008091FD04680F6093FD0480E0089581E05F
:1006C000089582E0089508958FEF9FEF08958FEFCA
:1006D0009FEF08958091DA0490E0919581959109BA
:1006E0000895CF93DF931F921F92CDB7DEB7CB0152
:1006F000642F49835A83BFDF4981842F5A81952F04
:100700000F900F90DF91CF910895CF93DF931F92B9
:10071000CDB7DEB7698361E0CE010196ACDF81E041
:1007200090E00F90DF91CF910895089580E090E0E0
:100730000895E2E5F5E0108211821282138214829C
:1007400015821682089582E594E038D6F2DF81E0C2
:1007500080935205089585E694E030D6EADF81E083
:1007600080935305089589E694E028D6E2DF81E07E
:100770008093540508958CE694E020D6DADF81E07A
:100780008093550508958FE694E018D6D2DF81E076
:1007900080935605089582E794E010D6CADF81E081
:1007A0008093570508950E94EE10EF92FF920F93E9
:1007B0001F93CF93DF93EC017B018A01888199819C
:1007C000009729F02A813B8124173507F8F4B801F6
:1007D0006F5F7F4F0E940A10009759F099838883BA
:1007E0001B830A832C813D81232B81F4FC01108221
:1007F0000DC088819981009711F00E94720F1982B3
:1008000018821D821C821B821A8207C01D830C83E2
:10081000B701888199810E94FB10CE01DF91CF91B1
:100820001F910F91FF90EF900895CF93DF93EC010C
:10083000FB0186179707A9F0608171816115710529
:1008400021F044815581B1DF0CC0888199810097E6
:1008500011F00E94720F198218821D821C821B8265
:100860001A82CE01DF91CF910895FC01118210828E
:1008700013821282158214826115710549F0FB0101
:1008800001900020E9F73197AF01461B570B8DCF40
:1008900008951F920F920FB60F9211240BB60F926C
:1008A0002F933F934F935F936F937F938F939F9378
:1008B000AF93BF93EF93FF9389E595E05ADDFF91E6
:1008C000EF91BF91AF919F918F917F916F915F91C8
:1008D0004F913F912F910F900BBE0F900FBE0F9035
:1008E0001F9018951F920F920FB60F9211240BB6FE
:1008F0000F922F938F939F93EF93FF93E09169054E
:10090000F0916A058081E0916F05F091700582FD9C
:1009100012C09081809172058F5F8F732091730553
:10092000821751F0E0917205F0E0E75AFA4F958F87
:100930008093720501C08081FF91EF919F918F910B
:100940002F910F900BBE0F900FBE0F901F90189518
:10095000CF93DF93282F30E0F901EE51FE4F8491C1
:10096000F901E456FE4FD491F901EA5AFE4FC491C1
:10097000CC2389F08111BDDDEC2FF0E0EE0FFF1FDD
:10098000E45CFE4FA591B491EC91ED2381E090E001
:1009900021F480E002C080E090E0DF91CF910895E3
:1009A0001F93CF93DF93282F30E0F901EE51FE4FD4
:1009B0008491F901E456FE4FD491F901EA5AFE4FB1
:1009C000C491CC23C1F0162F811193DDEC2FF0E000
:1009D000EE0FFF1FEE5DFE4FA591B4918FB7F89417
:1009E000111105C09C91ED2FE095E92302C0EC9117
:1009F000ED2BEC938FBFDF91CF911F9108958F92D4
:100A00009F92AF92BF92CF92DF92EF92FF926B01D3
:100A10007C0101DE4B015C01C114D104E104F1044D
:100A2000E9F0F9DDDC01CB0188199909AA09BB09B4
:100A3000883E9340A105B10578F321E0C21AD108A0
:100A4000E108F10888EE880E83E0981EA11CB11C15
:100A5000C114D104E104F10421F7DECFFF90EF903F
:100A6000DF90CF90BF90AF909F908F9008951F928E
:100A70000F920FB60F9211242F933F938F939F9352
:100A8000AF93BF9380914A0590914B05A0914C057F
:100A9000B0914D053091490523E0230F2D3720F407
:100AA0000196A11DB11D05C026E8230F0296A11DC8
:100AB000B11D2093490580934A0590934B05A0935F
:100AC0004C05B0934D0580914E0590914F05A09136
:100AD0005005B09151050196A11DB11D80934E05A1
:100AE00090934F05A0935005B0935105BF91AF91DE
:100AF0009F918F913F912F910F900FBE0F901F905C
:100B000018951F920F920FB60F9211240BB60F92E9
:100B10002F933F934F935F936F937F938F939F9305
:100B2000AF93BF93EF93FF93E0910E02F0910F020A
:100B30001995FF91EF91BF91AF919F918F917F9107
:100B40006F915F914F913F912F910F900BBE0F903E
:100B50000FBE0F901F9018951F920F920FB60F9215
:100B600011240BB60F922F933F934F935F936F9384
:100B70007F938F939F93AF93BF93EF93FF93E091F6
:100B80000C02F0910D021995FF91EF91BF91AF9179
:100B90009F918F917F916F915F914F913F912F9195
:100BA0000F900BBE0F900FBE0F901F9018951F92C5
:100BB0000F920FB60F9211240BB60F922F933F9303
:100BC0004F935F936F937F938F939F93AF93BF9355
:100BD000EF93FF93E0910202F09103021995FF91C8
:100BE000EF91BF91AF919F918F917F916F915F91A5
:100BF0004F913F912F910F900BBE0F900FBE0F9012
:100C00001F9018951F920F920FB60F9211240BB6DA
:100C10000F922F933F934F935F936F937F938F9395
:100C20009F93AF93BF93EF93FF93E0910002F091F6
:100C300001021995FF91EF91BF91AF919F918F9113
:100C40007F916F915F914F913F912F910F900BBECC
:100C50000F900FBE0F901F9018951F920F920FB616
:100C60000F9211240BB60F922F933F934F935F93E4
:100C70006F937F938F939F93AF93BF93EF93FF9364
:100C8000E0910A02F0910B021995FF91EF91BF914B
:100C9000AF919F918F917F916F915F914F913F9114
:100CA0002F910F900BBE0F900FBE0F901F901895B5
:100CB0001F920F920FB60F9211240BB60F922F9323
:100CC0003F934F935F936F937F938F939F93AF93D4
:100CD000BF93EF93FF93E0910802F09109021995F9
:100CE000FF91EF91BF91AF919F918F917F916F9104
:100CF0005F914F913F912F910F900BBE0F900FBEC0
:100D00000F901F9018951F920F920FB60F921124FB
:100D10000BB60F922F933F934F935F936F937F93F5
:100D20008F939F93AF93BF93EF93FF93E09106024E
:100D3000F09107021995FF91EF91BF91AF919F91AB
:100D40008F917F916F915F914F913F912F910F9074
:100D50000BBE0F900FBE0F901F9018951F920F9211
:100D60000FB60F9211240BB60F922F933F934F9310
:100D70005F936F937F938F939F93AF93BF93EF9303
:100D8000FF93E0910402F09105021995FF91EF9114
:100D9000BF91AF919F918F917F916F915F914F9193
:100DA0003F912F910F900BBE0F900FBE0F901F9091
:100DB00018951F920F920FB60F9211240BB60F9237
:100DC0002F933F934F935F936F937F938F939F9353
:100DD000AF93BF93EF93FF938091B900887F8036E4
:100DE00009F49CC068F5883209F45BC090F4803146
:100DF00009F454C038F4882309F4F6C0883009F4A3
:100E00004DC0F5C0883109F44CC0803209F45DC092
:100E1000EEC0803409F468C048F4803309F455C04A
:100E2000883309F0E4C080932205D8C0803509F4E6
:100E30004FC0883509F45DC0883409F0D8C0D6C0E9
:100E4000883909F4C7C0A8F4883709F467C038F4B2
:100E5000883609F463C0803709F460C0C8C0883898
:100E600009F4B8C0803909F45FC0803809F0BFC008
:100E70005BC0803B09F486C038F4803A09F466C050
:100E8000883A09F47FC0B3C0803C09F4A7C0883C0D
:100E900009F4A4C0883B09F48AC0A9C08091480520
:100EA00010C09091470580914605981770F5E09124
:100EB000470581E08E0F80934705F0E0EA5DFA4F29
:100EC00080818093BB0085EC86C0809322058EC014
:100ED000E091470581E08E0F809347058091BB002C
:100EE000F0E0EA5DFA4F80839091470580914605D6
:100EF0006EC0E091470581E08E0F80934705809199
:100F0000BB00F0E0EA5DFA4F8083809125058111F6
:100F10006DC081E08093240584EA61C083E0809302
:100F2000230510922105CFCF80912105803208F052
:100F300051C0E091210581E08E0F809321058091C1
:100F4000BB00F0E0EF5FFA4F8083BDCF85EC80936C
:100F5000BC001092230580912105803230F4E0918D
:100F60002105F0E0EF5FFA4F10826091210570E0FB
:100F7000E091FF04F091000581E095E01995109251
:100F8000210535C084E0809323051092FE04109261
:100F9000FD04E091FB04F091FC0419958091FD049F
:100FA000811105C081E08093FD041092DB04E09183
:100FB000FE0481E08E0F8093FE04F0E0E552FB4FCB
:100FC00080818093BB009091FE048091FD0498176E
:100FD00008F479CF85E88093BC0009C085EC809344
:100FE000BC001092230503C0109222053ADBFF914A
:100FF000EF91BF91AF919F918F917F916F915F9191
:101000004F913F912F910F900BBE0F900FBE0F90FD
:101010001F9018958F929F92AF92BF92CF92DF92BE
:10102000EF92FF920F931F93CF93DF93EC014B014D
:101030005A01690167E774E018DC7E0186E0E80E7A
:10104000F11C67E774E0C70110DC8E01045F1F4FDD
:1010500067E774E0C80109DC1B8A1A8A8AE090E01D
:101060009D8B8C8B84E190E09F8B8E8B8EE190E04A
:10107000998F888F1A8EB401C701D7DBB501CE01D5
:10108000D4DBB601C801DF91CF911F910F91FF9082
:10109000EF90DF90CF90BF90AF909F908F90C5CB97
:1010A0008F929F92AF92BF92CF92DF92EF92FF9278
:1010B0000F931F93CF93DF934B015C0169017A017A
:1010C00061E08DE06DDCA5019401C701B60131D668
:1010D00028EE33E040E050E03CD569017A0160E25F
:1010E00071EA87E090E0A501940133D58901C90137
:1010F000880F991F880F991FEC012597812C912C3F
:1011000054018C149D04AE04BF04C4F461E084E077
:1011100047DC0230110518F0CE010197F1F760E0CD
:1011200084E03EDC0230110518F0CE010197F1F7A2
:101130008FEF881A980AA80AB80AE3CF60E08DE01A
:10114000DF91CF911F910F91FF90EF90DF90CF90A3
:10115000BF90AF909F908F9023CC009761F0FC01DF
:1011600001900020E9F73197AF01481B590BBC01F2
:1011700089E595E08DC880E090E008958F929F9278
:10118000AF92BF92CF92DF92EF92FF920F931F9395
:10119000CF93DF93CDB7DEB7A1970FB6F894DEBF3C
:1011A0000FBECDBF6C01990FEE08FF08F7FE2FC0F0
:1011B000E0915905F0915A050190F081E02D6DE222
:1011C00089E595E019958C0122273327A9012C196F
:1011D0003D094E095F0919A2CE0181967C019AE072
:1011E000892E912CA12CB12CCA01B901A501940121
:1011F000D6D4605DF70162937F0121153105410569
:10120000510591F7CF01A9DF080F191F1CC0A701D5
:10121000960119A28E010F5D1F4F8AE0C82ED12CB6
:10122000E12CF12CCA01B901A7019601B8D4605D87
:10123000F80162938F01211531054105510591F7A0
:10124000CF018BDF8C0185E794E087DF800F911F52
:10125000A1960FB6F894DEBF0FBECDBFDF91CF9140
:101260001F910F91FF90EF90DF90CF90BF90AF90C4
:101270009F908F900895CF93DF9300D01F92CDB7AA
:10128000DEB780917B00877F80937B0086E480932C
:101290007C0080917A00806480937A0080917A004B
:1012A00086FDFCCFA091780080917900B0E0B82B4A
:1012B00024E630E068D52FEF33E040E050E049D439
:1012C000C90129833A834B835C8358DF84E690E02D
:1012D00029813A81821B930B0F900F900F900F90F2
:1012E000DF91CF910895CF93DF93FC014481558125
:1012F0006081718189E595E00E944801EC0185E7F4
:1013000094E02BDF8C0F9D1FDF91CF91089583E236
:101310001FDB019719F481E080931A0680911A0669
:10132000882309F44AC0809112069091130626DFA3
:101330008091120690911306409114065091150663
:1013400097FD08C0841795072CF4892B19F586E0C2
:1013500096E01FC020911606309117068417950756
:101360004CF08217930734F48417950799F480E0C2
:1013700096E00FC040911806509119068217930706
:101380009CF08417950784F48217930719F48CE076
:1013900096E0A9DF80911206909113060196909332
:1013A00013068093120608958417950731F410925E
:1013B0001A0610921306109212060895CF93DF9327
:1013C000CCDEEC0185E794E0C8DE8C0F9D1FDF9139
:1013D000CF9108958EE994E0F1DF86E2B9DA0197C2
:1013E00021F410925205109258050895CF93DF937F
:1013F00081EB94E0E3DF82E2ABDA019759F481E01C
:101400008093580568EC70E080E090E0F8DA83EAB9
:1014100094E0D4DF809158058823E1F068EC70E017
:1014200080E090E0ECDA80915805882399F082E220
:101430008FDAEC01019739F4109258056CE271E0F3
:1014400080E090E0DCDACE0199DE88EA94E0B6DF55
:10145000C1DFE9CFDF91CF9108954F925F926F92F4
:101460007F928F929F92AF92BF92CF92DF92EF9234
:10147000FF920F931F93CF93DF939093FF05809379
:10148000FE05029709F055C087EB94E097DFCEEB9D
:10149000D3E02EE4A22E23E0B22E38EE832E33E0EA
:1014A000932EA4DF97DF80915205882309F495C01D
:1014B0002EDFE1DE8C0169917991C40149D46B0181
:1014C000770FEE08FF08F501619171915F01072E1A
:1014D000000C880B990BA7019601E2DDC701B6014C
:1014E00049D22B013C01B801110F880B990B42D254
:1014F00026E636E646E250E478D220E030E048ECDA
:1015000052E47ED39B01AC01C301B2016ED2E0D3A1
:10151000072E000C880B990B72DAA701960160E088
:1015200070E0CB01BDDDF4E0CE32DF0709F0B9CFCA
:1015300054C08BEC94E042DFC2EBD2E086E1A82EEF
:1015400082E0B82E98EE892E93E0992E4FDF42DF8D
:1015500080915205882309F440C0D9DE8CDE8C01CD
:1015600069917991C401F4D36B01770FEE08FF08FC
:10157000F501619171915F01072E000C880B990BA9
:10158000A70196018DDDC701B601F4D12B013C0105
:10159000B801110F880B990BEDD12DEC3CEC4CE010
:1015A00050E423D29B01AC01C301B2011ED220E062
:1015B00030E048EC52E424D38BD3072E000C880B88
:1015C000990B1DDAA701960160E070E0CB0168DDA0
:1015D000F3E0CE34DF0709F0B9CFDF91CF911F914F
:1015E0000F91FF90EF90DF90CF90BF90AF909F90C2
:1015F0008F907F906F905F904F900895789484B50E
:10160000826084BD84B5816084BD85B5826085BDFE
:1016100085B5816085BD80916E00816080936E008C
:10162000109281008091810082608093810080917E
:10163000810081608093810080918000816080932F
:1016400080008091B10084608093B1008091B000EF
:1016500081608093B00080919100826080939100BE
:1016600080919100816080939100809190008160D1
:10167000809390008091A10082608093A10080916E
:10168000A10081608093A1008091A000816080937F
:10169000A00080912101826080932101809121012D
:1016A00081608093210180912001816080932001DD
:1016B00080917A00846080937A0080917A008260C1
:1016C00080937A0080917A00816080937A00809183
:1016D0007A00806880937A001092C100E0916905D9
:1016E000F0916A0582E08083E0916505F0916605DE
:1016F0001082E0916705F09168058FEC808310926D
:101700007105E0916D05F0916E0586E08083E091B2
:101710006B05F0916C05808180618083E0916B05A1
:10172000F0916C05808188608083E0916B05F09179
:101730006C05808180688083E0916B05F0916C0579
:1017400080818F7D808310925205109253051092F4
:101750005405109255051092560510925705109297
:10176000580561E084E00E94CF0260E08CE30E94B3
:10177000CF0260E082E20E94CF0260E086E20E9437
:10178000CF0283EA93E0909301028093000280915C
:101790006A008C7F816080936A00EC9A8BEA93E008
:1017A000909303028093020280916A00837F846099
:1017B00080936A00ED9A83EB93E090930B02809301
:1017C0000A02809169008F73806480936900EB9AAC
:1017D0008BEB93E09093090280930802809169005B
:1017E0008F7C806180936900EA9A83EC93E0909308
:1017F00007028093060280916900837F8460809352
:101800006900E99A8BEC93E09093050280930402BF
:10181000809169008C7F816080936900E89A809153
:101820005205882351F081E090E017DE81E090E0DE
:1018300014DE82E090E011DE04C08091530588231D
:1018400019F00E94990310C0809154058111F9CFBD
:10185000809155058111F5CF809156058111F1CF09
:10186000809157058111EDCF0E944102D8CFCF93CF
:10187000DF93C0E0D6E08C859D8534D38E819F8137
:1018800031D388819981DF91CF912CC3CF93DF939E
:10189000CDB7DEB762970FB6F894DEBF0FBECDBFEF
:1018A000E9E5F5E01382128288EE93E0A0E0B0E073
:1018B00084839583A683B78322E334E03183208336
:1018C00025EC30E03587248724EC30E03787268705
:1018D00020EC30E0318B208B21EC30E0338B228BFD
:1018E00022EC30E0358B248B26EC30E0378B268BD6
:1018F000118E128E138E148EEBE1F6E0138212829B
:1019000084839583A683B78384E494E09183808362
:1019100068E774E0CE010D960E94350468E874E033
:10192000CE0107960E94350468E974E0CE01019665
:101930000E9435049E01235F3F4FAE01495F5F4F18
:10194000BE016F5F7F4F80E096E064DB89819A8102
:10195000C9D28F819885C6D28D859E85C3D2629665
:101960000FB6F894DEBF0FBECDBFDF91CF910895C3
:10197000E89409C097FB3EF4909580957095619529
:101980007F4F8F4F9F4F9923A9F0F92F96E9BB27DF
:101990009395F695879577956795B795F111F8CF5B
:1019A000FAF4BB0F11F460FF1BC06F5F7F4F8F4FC6
:1019B0009F4F16C0882311F096E911C0772321F0BC
:1019C0009EE8872F762F05C0662371F096E8862F54
:1019D00070E060E02AF09A95660F771F881FDAF7AB
:1019E000880F9695879597F908950BD078C069D0A0
:1019F00028F06ED018F0952309F05AC05FC011246A
:101A0000A2C07ED0A0F3959FD1F3950F50E0551F53
:101A1000629FF001729FBB27F00DB11D639FAA2743
:101A2000F00DB11DAA1F649F6627B00DA11D661F92
:101A3000829F2227B00DA11D621F739FB00DA11DB3
:101A4000621F839FA00D611D221F749F3327A00D6D
:101A5000611D231F849F600D211D822F762F6A2F09
:101A600011249F5750408AF0E1F088234AF0EE0F8E
:101A7000FF1FBB1F661F771F881F91505040A9F79B
:101A80009E3F510570F014C05EC05F3FECF3983E7E
:101A9000DCF3869577956795B795F795E7959F5F02
:101AA000C1F7FE2B880F911D9695879597F908959C
:101AB00097F99F6780E870E060E008959FEF80EC01
:101AC000089500240A9416161706180609060895A4
:101AD00000240A9412161306140605060895092E0A
:101AE0000394000C11F4882352F0BB0F40F4BF2B79
:101AF00011F460FF04C06F5F7F4F8F4F9F4F0895B9
:101B000057FD9058440F551F59F05F3F71F04795AE
:101B1000880F97FB991F61F09F3F79F08795089593
:101B2000121613061406551FF2CF4695F1DF08C0B2
:101B3000161617061806991FF1CF869571056105CF
:101B400008940895E894BB2766277727CB0197F977
:101B50000895052E97FB16F400940FD057FD05D07D
:101B60001ED007FC02D046F408C050954095309531
:101B700021953F4F4F4F5F4F0895909580957095F9
:101B800061957F4F8F4F9F4F08952BD0A59F900D4C
:101B9000B49F900DA49F800D911D11240895A1E282
:101BA0001A2EAA1BBB1BFD010DC0AA1FBB1FEE1FD7
:101BB000FF1FA217B307E407F50720F0A21BB30B22
:101BC000E40BF50B661F771F881F991F1A9469F79E
:101BD00060957095809590959B01AC01BD01CF01FA
:101BE0000895A29FB001B39FC001A39F700D811DF6
:101BF0001124911DB29F700D811D1124911D089516
:101C00000CD06DCF65DF40F05CDF30F021F45F3F3A
:101C100019F04ECF511197CF51CF72DF98F399231E
:101C2000C9F35523B1F3951B550BBB27AA276217A0
:101C30007307840738F09F5F5F4F220F331F441FE5
:101C4000AA1FA9F333D00E2E3AF0E0E830D091501D
:101C50005040E695001CCAF729D0FE2F27D0660F0A
:101C6000771F881FBB1F261737074807AB07B0E849
:101C700009F0BB0B802DBF01FF2793585F4F2AF05F
:101C80009E3F510568F014CF5ECF5F3FECF3983E66
:101C9000DCF3869577956795B795F7959F5FC9F7BC
:101CA000880F911D9695879597F90895E1E0660F45
:101CB000771F881FBB1F621773078407BA0720F0BE
:101CC000621B730B840BBA0BEE1F88F7E095089527
:101CD00004D06894B11137CF08951ADF88F09F5768
:101CE00090F0B92F9927B751A0F0D1F0660F771F68
:101CF000881F991F1AF0BA95C9F712C0B13081F048
:101D000021DFB1E008951ECF672F782F8827B85FB5
:101D100039F0B93FCCF3869577956795B395D9F7A8
:101D20003EF490958095709561957F4F8F4F9F4FB2
:101D30000895DB018F939F9328DFBF91AF91A29FFE
:101D4000800D911DA39F900DB29F900D11240895B9
:101D500097FB072E16F4009406D077FD08D019D013
:101D600007FC05D03EF4909581959F4F089570959E
:101D700061957F4F0895EE0FFF1F881F8BBF07905F
:101D8000F691E02D19942DDFB7FF0895821B930B78
:101D90000895AA1BBB1B51E107C0AA1FBB1FA617B2
:101DA000B70710F0A61BB70B881F991F5A95A9F704
:101DB00080959095BC01CD010895CF93DF9382303B
:101DC000910510F482E090E0E0912906F0912A0656
:101DD00020E030E0C0E0D0E0309711F14081518147
:101DE00048175907C0F04817590761F48281938159
:101DF000209719F09B838A832BC090932A068093A7
:101E0000290626C02115310519F04217530718F489
:101E10009A01BE01DF01EF010280F381E02DDCCFEA
:101E20002115310509F1281B390B2430310590F4B7
:101E300012968D919C9113976115710521F0FB010C
:101E40009383828304C090932A0680932906FD0120
:101E5000329644C0FD01E20FF31F8193919322500B
:101E600031092D933C933AC02091270630912806E2
:101E7000232B41F420911202309113023093280653
:101E8000209327062091100230911102211531056F
:101E900041F42DB73EB74091140250911502241B16
:101EA000350BE0912706F0912806E217F307A0F41E
:101EB0002E1B3F0B2817390778F0AC014E5F5F4FA0
:101EC0002417350748F04E0F5F1F509328064093A4
:101ED00027068193919302C0E0E0F0E0CF01DF910B
:101EE000CF9108950F931F93CF93DF93009709F439
:101EF0008CC0FC0132971382128200912906109146
:101F00002A060115110581F420813181820F931F6A
:101F100020912706309128062817390779F5F09384
:101F20002806E093270671C0D80140E050E0AE17C4
:101F3000BF0750F412962D913C911397AD012115D6
:101F4000310509F1D901F3CF9D01DA0133832283F1
:101F500060817181860F971F8217930769F4EC01E6
:101F600028813981260F371F2E5F3F4F3183208311
:101F70008A819B8193838283452B29F4F0932A06DF
:101F8000E093290642C01396FC93EE931297ED015D
:101F9000499159919E01240F351FE217F30771F4FF
:101FA00080819181840F951F029611969C938E9348
:101FB0008281938113969C938E931297E0E0F0E0D8
:101FC000D80112968D919C911397009719F0F80102
:101FD0008C01F6CF8D919C9198012E5F3F4F820F1F
:101FE000931F20912706309128062817390769F496
:101FF000309729F410922A061092290602C0138203
:1020000012821093280600932706DF91CF911F912B
:102010000F9108956F927F928F929F92AF92BF928D
:10202000CF92DF92EF92FF920F931F93CF93DF93A4
:10203000EC01009781F4CB01DF91CF911F910F91BB
:10204000FF90EF90DF90CF90BF90AF909F908F90D8
:102050007F906F90B2CEFC01E60FF71F9C012250DB
:102060003109E217F30708F4A8C0D9010D911C91BA
:10207000119706171707A8F00530110508F49BC043
:10208000C80104978617970708F495C002501109F4
:10209000061B170B019311936D937C93CF0122DFE5
:1020A0008AC05B01A01AB10A4C01800E911EA0915A
:1020B0002906B0912A0640E050E0E12CF12C10975F
:1020C00009F44AC0A815B905D1F56D907C90119717
:1020D000630182E0C80ED11CCA14DB0480F1A301A5
:1020E0004A195B096A0182E0C80ED11C1296BC90A5
:1020F00012971396AC91B5E0CB16D10440F0B282A2
:10210000A38351834083D9016D937C930AC00E5FF2
:102110001F4FC301800F911FF90191838083EB2D25
:10212000FA2FE114F10431F0D7011396FC93EE93EA
:10213000129741C0F0932A06E09329063CC08D9186
:102140009C9111974817590708F4AC017D0112962C
:102150000D90BC91A02DB3CF8091270690912806B9
:1021600088159905E1F446175707C8F480911002C5
:1021700090911102009741F48DB79EB740911402DF
:1021800050911502841B950BE817F907B0F4F093F2
:102190002806E0932706F901718360830CC0CB0108
:1021A0000CDE7C01009749F0A801BE011BD0CE01D6
:1021B00099DEC70104C0CE0102C080E090E0DF914B
:1021C000CF911F910F91FF90EF90DF90CF90BF9034
:1021D000AF909F908F907F906F90089581E090E0F6
:1021E000F89410C0FB01DC0102C001900D92415037
:1021F0005040D8F70895FB01DC0101900D920020BA
:10220000E1F7089511E0C5E1D1E000E005C0802FBD
:10221000FE01B1DD2196011DC631D10780E008071E
:06222000B1F7F894FFCFB6
:102226003003300330033003300330033003300310
:1022360000002B0680004D0A4D0A00004D0A0000E2
:102246002D084D0A0000400C00000000000020068A
:102256000000000000002D0800000000200600001D
:102266000000270500000000E0060000B807000097
:102276004907E006000020064D0A400CC00D00008C
:10228600EA0A400C00004D0A00002D082D09B80787
:10229600000000002D0800000000200600000000DD
:1022A600270500000000E0060000B8070000490707
:1022B600E006000020064D0A400CC00D0000EA0AA8
:1022C600400C00004D0A00002D082D09B80700003B
:1022D60000000C000C000C000C000C000C000C00A4
:1022E6000C000C000C000C000C000C000C000C0088
:1022F6000C000C000C000C000C000C000C000C0078
:102306000C000C000C000C000C000C000C000C0067
:102316000C000900090009000C000C000C000C0060
:102326000C000C000C000C000C000C000C000C0047
:102336000C000C000C000C000C000C000C000C0037
:102346000C000C000C000C000C000C000C000C0027
:102356000900090009000C000C000C000C000C0020
:102366000C000C000C000C000C000C000C0006010C
:102376000B02DC00B801E900D201000000000601F2
:102386000B02DC00B801E900D20100000000AF003A
:102396005D01930026019C00370100000000AF009C
:1023A6005D01930026019C00370100000000370103
:1023B60015012601150137013701D000C4001501AA
:1023C600060172015D01A500D201B8019F01370126
:1023D600F700E900DC00D0000000000000000C005F
:1023E6000C000C000C000C000C00060003000C0096
:1023F6000C000C000C000C000C00060003000C0086
:102406000C000C000C000C000C00060003000C0075
:102416000C000C000C000C000C000600060012005C
:10242600120012000600060006000600060006005E
:102436001200120012001200120012000A000A0016
:102446000A000A000A000A00030003000300000055
:102456000000DA01480173012002A40182019601FD
:102466000000000085037103960363036A03670394
:1024760064037369206573206D6172696F676767AE
:1024860067676767007369200033200034200035D2
:1024960020003620000D0A005361626572207175B6
:1024A60069656E20667565004D617276696E204DB0
:1024B600617274696E657A004D6172696F0073743A
:1024C6006F70004C45454F006573746F7920656EDB
:1024D600207061757361002027556E646572776F91
:1024E600726C64205468656D65270020274D617203
:0A24F600696F205468656D652700CA
:00000001FF
